:10000000E8090400000000000000000000000000FB
:1000100000000000000000000000000000000000E0
:1000200000000000000000000000000000000000D0
:1000300000000000000000000000000000000000C0
:1000400000000000000000000000000000000000B0
:1013D0000F8A2000F0FF270020A0B7001000200097
:1013E00034A0B700400020004420B700080A0200E3
:1013F00000000000120A020000000000B0FF070019
:10140000CBFF0700D9FF0700FEFF3700FFFF3700C3
:1012C0008A1F78008B1F78008C1F78001820EF0091
:1012D0006BC0B3001420EF0044FF07001820EF009C
:1012E0002BC0B3001420EF0040FF07000B58220072
:1012F0000C0020000AC2B30090FF07002BC0B3000F
:101300000A802000B2FF070038002000578D20001F
:101310000E20ED00FEFF3A001020ED00FCFF3A0029
:101320004F067800CF0578004F05780000000600D2
:100FEC008A1F78008B1F78000A0037000B457800A9
:100FFC008C45780012FF07000B0037000B4578007A
:10100C008C4578006EFF07000700370010C0B30056
:10101C00050037006054E100F4FF32006154E10038
:10102C00F6FF3200F9FF3700CF0578004F05780046
:04103C0000000600AA
:100C4C00F0FF2F002AA3B700F0FF2F002CA3B70052
:100C5C00F0FF2F006CA3B7003E0037001600AE006B
:100C6C00C702A9001600AF00C702A8005200370047
:100C7C001600AE00CC22A9001600AF00CC22A800B2
:100C8C004D0037001600AE00CC42A9001600AF0094
:100C9C00CC42A800480037001600AE00DEC2A90006
:100CAC001600AF00DEC2A800430037001600AE00ED
:100CBC00DEE2A9001600AF00DEE2A8003E0037001D
:100CCC001600AE00DF02A9001600AF00DF02A8007C
:100CDC00390037001600AE00D202A9001600AF0092
:100CEC00D202A800340037001600AE00C182A90061
:100CFC001600AF00C182A8002F0037001600AE000E
:100D0C00DE82A9001600AF00DE82A8002A003700A0
:100D1C001600AE00DEA2A9001600AF00DEA2A800ED
:100D2C00250037001600AE00C042A9001600AF0027
:100D3C00C042A800200037001600AE00C062A90017
:100D4C001600AF00C062A8001B00370010C0B30033
:100D5C001A0037006054E100C0FF32006154E1001A
:100D6C00C3FF32006254E100C6FF32006354E1005D
:100D7C00C9FF32006454E100CCFF32006554E1003D
:100D8C00CFFF32006654E100D2FF32006754E1001D
:100D9C00D5FF32006854E100D8FF32006954E100FD
:100DAC00DBFF32006A54E100DEFF32006B54E100DD
:100DBC00E1FF3200E5FF370000C0B3000000060081
:100DCC00F0FF2F002AA3B700F0FF2F002CA3B700D1
:100DDC00F0FF2F006CA3B7003E0037001600AE00EA
:100DEC00C722A9001600AF00C722A8005200370086
:100DFC001600AE00CC62A9001600AF00CC62A800B1
:100E0C004D0037001600AE00CC82A9001600AF00D2
:100E1C00CC82A800480037001600AE00DEC2A90044
:100E2C001600AF00DEC2A800430037001600AE006B
:100E3C00DEE2A9001600AF00DEE2A8003E0037009B
:100E4C001600AE00DF02A9001600AF00DF02A800FA
:100E5C00390037001600AE00D222A9001600AF00F0
:100E6C00D222A800340037001600AE00C1A2A9009F
:100E7C001600AF00C1A2A8002F0037001600AE006C
:100E8C00DF82A9001600AF00DF82A8002A0037001D
:100E9C001600AE00DFA2A9001600AF00DFA2A8006A
:100EAC00250037001600AE00C042A9001600AF00A6
:100EBC00C042A800200037001600AE00C062A90096
:100ECC001600AF00C062A8001B00370010C0B300B2
:100EDC001A0037006054E100C0FF32006154E10099
:100EEC00C3FF32006254E100C6FF32006354E100DC
:100EFC00C9FF32006454E100CCFF32006554E100BC
:100F0C00CFFF32006654E100D2FF32006754E1009B
:100F1C00D5FF32006854E100D8FF32006954E1007B
:100F2C00DBFF32006A54E100DEFF32006B54E1005B
:100F3C00E1FF3200E5FF370000C0B30000000600FF
:10113C008A1F78008B1F78008C1F780012003700F4
:10114C000B0578008C0578007DFF0700190037002F
:10115C000B0578008C057800B7FE070015003700EA
:10116C000B0578008C057800A2FE070011003700F3
:10117C000B0578008C057800A3FE07000D003700E6
:10118C0010C0B3000B0037006054E100ECFF3200DC
:10119C006154E100EEFF320000C2B3000054E100E4
:1011AC00EFFF320000C3B3000054E100F0FF320047
:1011BC00F3FF37004F067800CF0578004F05780015
:0411CC000000060019
:100F4C0025FE0700603D2000F04488000020EF00E3
:040F5C00000006008B
:1007E4000800FA00603D2000A0418800F0FF2F00BF
:1007F40090418800F0FF2F0050418800F0FF2F0047
:10080400604188003022EF000000280032A2B700C7
:100814003062A90002FF07000001BE00803E2000F4
:100824000100200056FF07000001BE00FAFE070089
:100834004100DE0064004000800078006000470052
:100844000A88BE008100E900030035001018D000BA
:100854001090D200FBFF3700829FBE008A9FBE002B
:100864000200BE000E0190009E0190000002EB0009
:1008740017FF07004F05BE004F01BE002007980078
:10088400310798008A9FBE000200BE000E0190004E
:100894009E0190000002EB00E4FE07004F05BE003D
:1008A4008001780001027800600047005001D10007
:1008B400C080D300640047003008E1002090E100CC
:1008C4000700310061804100E0004A0080027800A6
:1008D40001037800050178008601780002003700E2
:1008E40003017800840178000280710033003A002B
:1008F400CBFE07000001BE00803E20000100200066
:100904001FFF07000001BE00C3FE07004100DE0018
:1009140000A0EC0080007800600047000A88BE0058
:100924008100E900030035001018D0001090D200B7
:10093400FBFF3700829FBE000200BE000E01900044
:100944009E0190000002EB00E1FE07004F01BE0093
:1009540020079800310798000200BE000E019000A5
:100964009E0190000002EB00B0FE070080017800B9
:1009740001027800600047005001D100C080D3001C
:10098400640047003008E1002090E10007003100D6
:1009940061804100E0004A00800278000103780091
:1009A4000501780086017800020037000301780011
:1009B400840178003062A800000037006100510013
:1009C400E0805900C01188003222A90031E2A80059
:1009D4003342A80089FE070088FE07000080FA0061
:0409E4000000060009
:0C04240000F42100010020000000060090
:08041C00200020000000060092
:1004000038002000578D20000E20ED00FEFF3A003E
:0C0410001020ED00FCFF3A000000060088
:100584000000FA00020AB800500088000200B80017
:1005940081004200032AB800810042000080FA0072
:0405A400000006004D
:1004D4000000FA0002000700BE0204000000000051
:1004E4000800E20002003A001000070000000600C5
:1004F400811F78000200E20002003D00600010004D
:10050400E08018000600E20002003D0060011100D6
:10051400E0811900050007004F00E00002003B00E5
:1005240060001000E08018000000060002000700D0
:100534000480BE00000006006022B800060220000D
:100544000000D0008180D2000482D2008582D200D3
:100554000000A8000202520083825A0003003B00FC
:100564000202420083824A000000A1000603E9005F
:10057400F3FF3A00000006000080FA0000000600C5
:100430000000FA000200070066020400000000004D
:100440000800E20002003A00100007000000060069
:10045000839F68000200E20002003D00600010007F
:10046000E08018000600E20002003D00600111007B
:10047000E0811900050007004F00E00002003B008A
:1004800060001000E0801800000006006022B80044
:10049000060220000000D0008180D2000482D20039
:1004A0008582D2000000A8000202520083825A0016
:1004B00003003B000202420083824A000000A100C8
:1004C0000603E900F3FF3A00000006000080FA008E
:0404D0000000060022
:080C440060C0B30000000600CF
:100C0000F8FE0700603D2000F04488000020EF005F
:040C100000000600DA
:100C140064FE0700403E2000F04488000020EF00FE
:040C240000000600C6
:1005A8000800FA00403E2000A0418800F0FF2F001C
:1005B80090418800F0FF2F0050418800F0FF2F0085
:1005C800604188002022EF000000280022A2B70026
:1005D8002062A90091FF07000001BE00803E2000B4
:1005E80001002000E5FF07000001BE0089FF0700A9
:1005F8004100DE0064004000800078006000470091
:100608000A88BE008100E900030035001018D000F8
:100618001090D200FBFF3700829FBE008A9FBE0069
:100628000200BE000E0190009E0190000002EB0047
:10063800A6FF07004F05BE004F01BE002007980027
:10064800310798008A9FBE000200BE000E0190008C
:100658009E0190000002EB0073FF07004F05BE00EB
:100668008001780001027800600047005001D10045
:10067800C080D300640047003008E1002090E1000A
:100688000700310061804100E0004A0080027800E4
:100698000103780005017800860178000200370020
:1006A80003017800840178000280710033003A0069
:1006B8005AFF07000001BE00803E20000100200014
:1006C800AEFF07000001BE0052FF07004100DE0038
:1006D80000A0EC0080007800600047000A88BE0097
:1006E8008100E900030035001018D0001090D200F6
:1006F800FBFF3700829FBE000200BE000E01900083
:100708009E0190000002EB0070FF07004F01BE0041
:1007180020079800310798000200BE000E019000E3
:100728009E0190000002EB003FFF07008001780067
:1007380001027800600047005001D100C080D3005A
:10074800640047003008E1002090E1000700310014
:1007580061804100E0004A008002780001037800CF
:10076800050178008601780002003700030178004F
:10077800840178002062A800000037006100510061
:10078800E0805900401188002222A90021E2A80037
:100798002342A80018FF070017FF07000080FA008F
:0407A8000000060047
:1011D0000200FA008A1F78008A007800D000200000
:1011E00000479800A0002000104798002500370015
:1011F000010578008CFE0700290037000100780007
:101200001004E00008003200801F78008A9FBE00B2
:101210000005780084FE07004F05BE004F007800EF
:101220000020EC00F6FF37001D00370001007800B9
:101230001004E00008003200801F78008A9FBE0082
:101240000005780078FE07004F05BE004F007800CB
:101250000020EC00F6FF3700600047008A9FBE00C8
:101260000005780070FE0700610047000005780067
:101270006DFE07004F05BE000900370060C0B300D7
:1012800007003700605CE100D9FF3200615CE100DB
:10129000DAFF3200625CE100E4FF3200F7FF370062
:0C12A0004F0578000080FA0000000600F6
:100C28008A1F78001A85FB00F0448000000001004C
:0C0C38000020EF004F05780000000600CF
:1007C8000000FA002302AF0001003700FDFF3700E8
:0C07D8002A1188000080FA0000000600D2
:1007AC000000FA003302AF0001003700FDFF3700F4
:0C07BC00AA1188000080FA00000006006E
:101330008A1F78008B1F78000A002800DBFF070057
:101340001AC0B300DBFF07000AC0B30024FF070088
:101350001620EF001A00200039FF070028FC0700C4
:0C136000CF0578004F0578000000060063
:0812AC0045FF070000000600E9
:100FC4006400450010007800704188006C00450002
:0C0FD4001000780080418800000006003A
:0C12B400704180000000010000000600F6
:100F74001400AE00CB02A9001400AF00CB02A800FD
:040F84000000060063
:100F60001400AE00D022A9001400AF00D022A800C7
:040F70000000060077
:100F88001400AE00D042A9001400AF00D042A8005F
:040F9800000006004F
:100FB0001400AE00E2C2A9001400AF00E2C2A80013
:040FC0000000060027
:100F9C001400AE00E2E2A9001400AF00E2E2A800E7
:040FAC00000006003B
:1009E8001400AE00E302A9001400AF00E302A8005F
:0409F80000000600F5
:100A60001400AE00D602A9001400AF00D602A80000
:040A7000000006007C
:100A74001400AE00C582A9001400AF00C582A8000E
:040A84000000060068
:100A88001400AE00E282A9001400AF00E282A800C0
:040A98000000060054
:100A24001400AE00E2A2A9001400AF00E2A2A800E4
:040A340000000600B8
:100A38001400AE00C442A9001400AF00C442A800CC
:040A480000000600A4
:100A4C001400AE00C462A9001400AF00C462A80078
:040A5C000000060090
:1009FC001400AE00CB22A9001400AF00CB22A8003B
:040A0C0000000600E0
:100A10001400AE00D062A9001400AF00D062A8009C
:040A200000000600CC
:100A9C001400AE00D082A9001400AF00D082A800D0
:040AAC000000060040
:100BB0001400AE00E2C2A9001400AF00E2C2A80017
:040BC000000006002B
:100B9C001400AE00E2E2A9001400AF00E2E2A800EB
:040BAC00000006003F
:100BC4001400AE00E302A9001400AF00E302A80081
:040BD4000000060017
:100BEC001400AE00D622A9001400AF00D622A80033
:040BFC0000000600EF
:100BD8001400AE00C5A2A9001400AF00C5A2A80069
:040BE8000000060003
:100B88001400AE00E382A9001400AF00E382A800BD
:040B98000000060053
:100AC4001400AE00E3A2A9001400AF00E3A2A80042
:040AD4000000060018
:100AB0001400AE00C442A9001400AF00C442A80054
:040AC000000006002C
:100AD8001400AE00C462A9001400AF00C462A800EC
:040AE8000000060004
:0C0FE000804180000000010000000600BD
:101040000000FA006057200040418800000E200098
:1010500020A3B700CA50DD000032200010887000C5
:1010600001002E002032200001886500F0F32100ED
:1010700024A3B7003223EF003023EF002E23EF002C
:0C10800021E3A8000080FA000000060038
:10136C008A1F78008B1F78008A00200044FF07003A
:10137C008000EB00B0418800C1418800AB832000A5
:10138C00BA41800043FF07001BC0B3004A81200014
:10139C008CFF07002BC0B300AA83200089FF070035
:1013AC00B8002000D7C222000E20ED00FEFF3A004C
:1013BC001020ED00FCFF3A00CF0578004F057800B7
:0413CC000000060017
:10108C000000FA00AEFE070095FE07000080FA0093
:04109C00000006004A
:100B4C000000FA006057200040418800000E200091
:100B5C0020A3B7002143A9002223EF00F0F32100CA
:100B6C0024A3B7003223EF003023EF002E23EF0035
:0C0B7C0021E3A8000080FA000000060041
:100AEC000000FA006F50E10007003600F0005500DE
:100AFC00100020000100DD008080EA00A032200000
:100B0C001088600005003700100020000A00DD008E
:100B1C008080EA00C0322000108860004A198800EA
:100B2C002023A8002003AF0001003700FDFF370091
:100B3C002003A9000083BF000080FA00000006001B
:1010A0000000FA00430120006180410010407800F8
:1010B0000080FB004400DE008080FB0070052800FB
:1010C0008100400011407800804D7800618145002A
:1010D000618041001080FB00EF0060007005280077
:1010E000810040001140780000497800628145008D
:1010F0000A80FB004400DE008080FB0070052800B1
:10110000810040001140780000497800638145006B
:101110000A80FB00EF00600070052800810040009D
:101120001140780000497800E48045000020EF007D
:0C113000804878000080FA0000000600F3
:101410000A8020000B0020004F0009000B1D7800FF
:0414200000000600C2
:10142400018020000003280012000900B018780091
:08143400B0587800000006002A
:020000040001F9
:10000000BA070000B0070000C4070000D8070000CE
:10001000CE070000F4040000300500003A0500009F
:1000200044050000120500001C0500002605000024
:10003000FFFF0000FFFF0000FFFF0000FFFF0000C8
:10004000FFFF0000FFFF0000FFFF0000FFFF0000B8
:10005000FFFF0000FFFF0000FFFF0000FFFF0000A8
:100060002D2D00002D200000537900007374000036
:10007000656D0000204900006E69000074200000DA
:080080002D2D00002D000000F1
:10008800205300006C6900006465000072200000C5
:10009800766100006C750000652000003A200000C1
:1000A80030780000003000003132000033340000A6
:1000B800353600003738000039410000424300005F
:0800C800444500004600000061
:0200000401F009
:20000000CF000000CF00000007000000A2000000850000007F000000E7000000C1000000ED
:00000001FF
