:10000000FCFF0320851A00003D1A00003D1A000085
:100010003D1A00003D1A00003D1A00003D1A000084
:100020003D1A00003D1A00003D1A00003D1A000074
:100030003D1A00003D1A00003D1A00003D1A000064
:100040003D1A00003D1A00003D1A00003D1A000054
:100050003D1A00003D1A00003D1A00003D1A000044
:100060003D1A00003D1A00003D1A00003D1A000034
:100070003D1A00003D1A00003D1A00003D1A000024
:100080003D1A00003D1A00003D1A00003D1A000014
:100090003D1A00003D1A00003D1A00003D1A000004
:1000A0003D1A00003D1A00003D1A00003D1A0000F4
:1000B0003D1A00003D1A00003D1A00003D1A0000E4
:1000C0003D1A00003D1A00003D1A00003D1A0000D4
:1000D0003D1A00003D1A00003D1A00003D1A0000C4
:1000E0003D1A00003D1A00003D1A00003D1A0000B4
:1000F0003D1A00003D1A00003D1A00003D1A0000A4
:100100003D1A00003D1A00003D1A00003D1A000093
:100110003D1A00003D1A00003D1A00003D1A000083
:100120003D1A00003D1A00003D1A00003D1A000073
:100130003D1A00003D1A00003D1A00003D1A000063
:100140003D1A00003D1A00003D1A00003D1A000053
:100150003D1A00003D1A00003D1A00003D1A000043
:100160003D1A00003D1A00003D1A00003D1A000033
:100170003D1A00003D1A00003D1A00003D1A000023
:100180003D1A00003D1A00003D1A00003D1A000013
:100190003D1A00003D1A00003D1A00003D1A000003
:1001A0003D1A00003D1A00003D1A00003D1A0000F3
:1001B0003D1A00003D1A00003D1A00003D1A0000E3
:1001C0003D1A00003D1A00003D1A00003D1A0000D3
:1001D0003D1A00003D1A00003D1A00003D1A0000C3
:1001E0003D1A00003D1A00003D1A00003D1A0000B3
:1001F0003D1A00003D1A00003D1A00003D1A0000A3
:080200003D1A00003D1A000048
:101A840000F010F8FFF7DCFF00F07AFAFFF7EEFF42
:101A940000F036FAFFF78AFFFFF76CFFFFF72AFF23
:041AA400FCE7FEE776
:10194C0081B01CF8019B0BF8019BBBEB0A0FF8D183
:04195C0001B070471F
:101A000081B04FF000094FF0000CBDEB0A0F04DC71
:101A1000BDEB0B0F01DBD446EA464BF8049BBBEB56
:101A20000A0FFAD1BCEB0A0F05DDE246D9F800B087
:0A1A30000BF1040BF1E701B0704761
:1019B00081B0CDF800E0002206210020FFF762FF91
:1019C000002202210020FFF75DFF42F2805120201B
:1019D000FFF734FF09480221FFF7F8FE40F6FE0743
:1019E000C0F23D0700BF00BF7F1EFDD100BF00BF9A
:1019F00000BFDDF800E001B0704700BF000000202C
:1018840081B0CDF800E05FFA81FA5FFA82FB0FE0E5
:101894005FFA8BF15FFA8AF0FFF766FB0DE05FFAFF
:1018A4008BF15FFA8AF0FFF759FC06E0012004E0AF
:1018B4000028EDD00128F2D0F8E7DDF800E001B00F
:0218C40070476B
:100F6C0081B0CDF800E091E0012904D110215A485C
:100F7C00FFF704FF03E010215748FFF7E9FEA5E057
:100F8C00012904D101215448FFF7F8FE03E00121A7
:100F9C005148FFF7DDFE99E0012904D101214F48AA
:100FAC00FFF7ECFE03E001214C48FFF7D1FE8DE08A
:100FBC00012904D104214A48FFF7E0FE03E0042193
:100FCC004748FFF7C5FE81E0012904D120214448A0
:100FDC00FFF7D4FE03E020214148FFF7B9FE75E08E
:100FEC00012904D110213E48FFF7C8FE03E010216F
:100FFC003B48FFF7ADFE69E0012904D101213948D6
:10100C00FFF7BCFE03E001213648FFF7A1FE5DE0CF
:10101C00012904D110213448FFF7B0FE03E0102160
:10102C003148FFF795FE51E0012904D140212F48AA
:10103C00FFF7A4FE03E040212C48FFF789FE45E0B2
:10104C00012904D180212948FFF798FE03E0802173
:10105C002648FFF77DFE39E0012904D104211F4801
:10106C00FFF78CFE03E004211C48FFF771FE2DE016
:10107C00012904D108211948FFF780FE03E008215B
:10108C001648FFF765FE21E0012020E000283FF420
:10109C006BAF01283FF474AF02283FF47DAF0328F7
:1010AC003FF486AF04283FF48FAF05283FF498AF88
:1010BC0006283FF4A1AF0728AAD00828B4D00928E5
:1010CC00BED00A28C8D00B28D2D0DDE70020DDF82E
:1010DC0000E001B0704700BF00C005400090054023
:1010EC000080054000B0054000D0054000A0054040
:100D880081B0CDF800E0002440F240031BB240F2ED
:100D9800001212B21A4393B2002210B4FFF726FBD6
:0A0DA80001B0DDF800E001B0704773
:1003F40082B0CDF800E05FFA81F8D5B29FB29DF8E3
:100404000830F54C00EA0404A1462046FFF7FAFE42
:10041400F24CA54208D109F580666FEA0805EDB2F1
:1004240034682C40346008E0ED4CA54205D109F550
:1004340080652C6844EA08042C6040F2010407EA51
:100444000404A4B234B109F5A2652C6844EA080492
:100454002C6007E009F5A2666FEA0805EDB234687E
:100464002C40346040F2020407EA0404A4B234B11C
:1004740009F214552C6844EA08042C6007E009F2D8
:1004840014566FEA0805EDB234682C40346040F22B
:10049400080407EA0404A4B234B109F20C552C6828
:1004A40044EA08042C6007E009F20C566FEA0805D8
:1004B400EDB234682C40346040F2100407EA0404BE
:1004C400A4B234B109F5A0652C6844EA08042C6090
:1004D40007E009F5A0666FEA0805EDB234682C4020
:1004E400346040F2200407EA0404A4B234B109F2EF
:1004F40004552C6844EA08042C6007E009F2045609
:100504006FEA0805EDB234682C40346040F24004D0
:1005140007EA0404A4B234B109F5A1652C6844EADD
:1005240008042C6007E009F5A1666FEA0805EDB23E
:1005340034682C40346041F2000407EA0404A4B295
:10054400012C13D042F2000407EA0404A4B2012CE3
:100554000CD044F2000407EA0404A4B2012C05D030
:10056400DEB24B46B8B25FFA88F53CE000200026C4
:10057400DAB2BBB207465FFA88F04946082E13D2B6
:1005840020FA06F4E4B204F00104E4B24CB17500BC
:100594002DB2032424B2AC4024B247EA04052F460A
:1005A400FFE7761CF6B2E9E701F6C476FD4334684A
:1005B4002C40346001F23C56C543EDB234682C4003
:1005C400346001F5A166C543EDB234682C40346053
:1005D40001F20456C543EDB234682C403460C5B210
:1005E40098B20B46D6B2002141F2000400EA04049A
:1005F400A4B23CB300220F46E9B2082A13D221FA6E
:1006040002F4E4B204F00104E4B24CB155002DB29A
:10061400012424B2AC4024B247EA04052F46FFE784
:10062400521CD2B2E9E703F6C4752C683C432C6033
:1006340003F5A1652C680C432C603D461F4683B22C
:10064400C8B203E01F4683B2E8B20D4642F200048A
:1006540003EA0404A4B26CB30022A8463946082A6B
:1006640013D220FA02F4E4B204F00104E4B24CB16F
:1006740055002DB2032424B2AC4024B248EA040548
:10068400A846FFE7521CD2B2E9E701F6C4752C680C
:1006940044EA08042C6001F23C552C6804432C60A5
:1006A40001F5A1652C6804432C60F7B20E46C2B272
:1006B40098B205E00197C2B298B2F7B2A846019E7B
:1006C40044F2000400EA0404A4B284B30023D1B2C7
:1006D400082B14D221FA03F4E4B204F00104E4B2C6
:1006E40054B15D002DB2032424B2AC4024B248EAD4
:1006F400040422469046FFE75B1CDBB2E8E706F6FB
:10070400C4752C6844EA08042C6006F23C552C6835
:100714000C432C6006F5A1652C680C432C6006F292
:1007240004552C680C432C60FBB2324602E0D1B273
:100734003246FBB240F2800400EA0404A4B274B16D
:1007440040F2400400EA0404A4B22CB102F5A3650B
:100754002C680C432C6001E00120FAE006E002F56D
:10076400A366CD43EDB234682C40346040F20014EB
:1007740000EA0404A4B22CB102F21C552C680C4308
:100784002C6006E002F21C56CD43EDB234682C40D6
:10079400346040F2002400EA0404A4B2002C3AD0ED
:1007A400104CA24240F2000500D001250E4CA2429A
:1007B40040F2000400D0012425400C4CA24240F237
:1007C400000400D001242540094CA24240F2000458
:1007D40000D0012425400DE000F0FFFF00000000E0
:1007E4000100000000C0054000B005400090054035
:1007F40000100640594CA24240F2000400D00124EB
:1008040005EA04040CB10120A3E002F5A5652C68F7
:100814000C432C602AE0524CA24240F2000500D165
:100824000125504CA24240F2000400D1012425438A
:100834004D4CA24240F2000400D1012425434B4C0C
:10084400A24240F2000400D101242543434CA242B9
:1008540040F2000400D1012445EA040434B102F555
:10086400A566CD43EDB234682C40346040F60004F4
:1008740000EA0404A4B22CB102F5A6652C680C436A
:100884002C6006E002F5A666CD43EDB234682C4038
:10089400346040F2004400EA0404A4B22CB102F52E
:1008A40084652C680C432C6006E002F58466CD4315
:1008B400EDB234682C4034600BB9002049E00F2BB2
:1008C40001D9012045E0002700208DF80430C3B28F
:1008D40010469DF80420082B12D221FA03F4E4B246
:1008E40004F00104E4B244B19D002DB24FF00F04B2
:1008F400AC4047EA04052F46FFE75B1CDBB2EAE79E
:1009040000F22C56FD4334682C403460002600234A
:100914008DF80430CBB29DF80410082913D223FAC1
:1009240001F4E4B204F00104E4B24CB1D5B28C0099
:1009340024B205FA04F446EA040425462E46FFE7E9
:10094400491CC9B2E9E700F22C552C6834432C60E9
:100954000020DDF800E002B0704700BF0050064000
:1009640000C0054000B0054000900540001006405E
:1002080081B0664900EA010108467DE06449096851
:1002180041F0010262490A60BEE06149096841F0A3
:1002280002025F490A60B7E05D49096841F00402CB
:100238005B490A60B0E05A49096841F00802584928
:100248000A60A9E05649096841F0100254490A6059
:10025800A2E05349096841F0200251490A609BE035
:100268004F49096841F040024D490A6094E04C4901
:10027800096841F080024A490A608DE048490968E6
:1002880041F4807246490A6086E04549096841F4AC
:10029800007243490A607FE04149096841F480627D
:1002A8003F490A6078E03E49096841F400623C49E8
:1002B8000A6071E03A49096841F4805238490A6095
:1002C8006AE03749096841F4005235490A6063E039
:1002D8003349096841F4804231490A605CE0304999
:1002E800096841F400422E490A6055E02C49096822
:1002F80041F480322A490A604EE02949096841F4EC
:10030800003227490A6047E0264988423FF47EAF19
:10031800254988423FF481AF244988423FF484AF9D
:10032800234988423FF487AF224988423FF48AAF85
:10033800214988423FF48DAF204988423FF490AF6D
:100348001F4988423FF493AF1E4988423FF496AF55
:100358001D4988423FF499AF1C4988423FF49CAF3D
:100368001B4988423FF49FAF1A4988423FF4A2AF25
:10037800194988423FF4A5AF184988423FF4A8AF0D
:10038800174988423FF4ABAF164988423FF4AEAFF5
:10039800154988423FF4B1AF01B0704700F0FFFF44
:1003A80008E60F40008005400090054000A0054089
:1003B80000B0054000C0054000D0054000E0054001
:1003C80000F00540000006400010064000200640EE
:1003D80000300640004006400050064000600640DD
:0C03E800007006400080064000900640B7
:100D5C0081B0CDF800E0002440F240031BB240F219
:100D6C00001212B21A4393B2012210B4FFF73CFBEB
:0A0D7C0001B0DDF800E001B070479F
:1011600081B0CDF800E091E0012904D120215A4856
:10117000FFF70AFE03E020215748FFF7EFFDA5E047
:10118000012904D102215448FFF7FEFD03E00221AA
:101190005148FFF7E3FD99E0012904D120214F4890
:1011A000FFF7F2FD03E020214C48FFF7D7FD8DE06B
:1011B000012904D104214A48FFF7E6FD03E0042198
:1011C0004748FFF7CBFD81E0012904D120214448A5
:1011D000FFF7DAFD03E020214148FFF7BFFD75E08E
:1011E000012904D110213E48FFF7CEFD03E0102174
:1011F0003B48FFF7B3FD69E0012904D102213948DA
:10120000FFF7C2FD03E002213648FFF7A7FD5DE0CE
:10121000012904D140213348FFF7B6FD03E0402106
:101220003048FFF79BFD51E0012904D110212E48E1
:10123000FFF7AAFD03E010212B48FFF78FFD45E0E3
:10124000012904D120212848FFF79EFD03E0202139
:101250002548FFF783FD39E0012904D104211F4807
:10126000FFF792FD03E004211C48FFF777FD2DE016
:10127000012904D108211948FFF786FD03E0082160
:101280001648FFF76BFD21E0012020E000283FF425
:101290006BAF01283FF474AF02283FF47DAF032801
:1012A0003FF486AF04283FF48FAF05283FF498AF92
:1012B00006283FF4A1AF0728AAD00828B4D00928EF
:1012C000BED00A28C8D00B28D2D0DDE70020DDF838
:1012D00000E001B0704700BF00C00540009005402D
:0C12E0000080054000B0054000A0054063
:10183C0081B0CDF800E011E00846FFF767FC16E038
:10184C000846FFF791FD12E00846FFF759FD0EE040
:10185C000846FFF76DFC0AE0012008E00028EBD0F9
:10186C000128EDD02028EFD03028F1D0F4E7DDF8B6
:06187C0000E001B070471E
:1011180081B0CDF800E0FFF749FE044A04490A60AF
:101128000020DDF800E001B0704700BFB50B0000FB
:041138009000002003
:100DB40082B0CDF800E00346214A22490A60224A63
:100DC40022490A60224A23490A60234A23490A60C5
:100DD40001932348FFF72CFE019B012252B22149C3
:100DE4000A6000BF00BF00BFFFF76CFEFFF7F6FD0F
:100DF40040F2E83100FB01F210461901914205D995
:100E0400012252B218490A605A0804E0002252B280
:100E140015490A601A46C100B1FBF2F1491C4B089E
:100E24009A0912490A6003F03F0211490A606022DC
:100E340010490A60FFF7D8FDDDF800E002B0704702
:100E4400B50B00009C000020FFFFFFFFA000002066
:100E5400FFFFFFFFA4000020FFFFFFFFA80000200A
:100E6400D81B000014C3FC43140622422410014082
:080E7400281001402C10014080
:100A340081B0CDF800E040F2000B82460AF1D80103
:100A440009788B4539D20C210BFB01F10AEB01012A
:100A54008C460CF108010978A9B90CF10801097850
:100A6400CCB20CF1060109888BB20CF104010978AF
:100A7400CAB2DCF800100846D1B2002210B4FFF765
:100A8400B7FC01B014E00CF108010978CCB20CF108
:100A9400060109888BB20CF104010978CAB2DCF8AA
:100AA40000100846D1B20F2210B4FFF7A1FC01B028
:100AB4000BF1010B5FFA8BFBC0E7DDF800E001B03E
:020AC400704779
:100AC80081B0002149B2044801600448016004482B
:100AD800016001B0704700BF000622422006224292
:040AE800240622427C
:0C09E00001480068704700BF980000202C
:1009EC0081B0012149B20448016004480160044807
:1009FC00016001B0704700BF00062242200622426F
:040A0C002406224258
:1013740081B0CDF800E0FFF78BFC044A04490A6011
:101384000020DDF800E001B0704700BFED0B000065
:0413940090000020A5
:100C940082B0CDF800E00346214A22490A60224A84
:100CA40022490A60224A23490A60234A23490A60E6
:100CB40001932348FFF7BCFE019B012252B2214954
:100CC4000A6000BF00BF00BFFFF7A0FEFFF786FE6B
:100CD40040F2E83100FB01F210461901914205D9B6
:100CE400012252B218490A605A0804E0002252B2A2
:100CF40015490A601A46C100B1FBF2F1491C4B08C0
:100D04009A0912490A6003F03F0211490A606022FD
:100D140010490A60FFF72CFEDDF800E002B07047CE
:100D2400ED0B00009C000020FFFFFFFFA00000204F
:100D3400FFFFFFFFA4000020FFFFFFFFA80000202B
:100D4400B41C00001CC3FC4314062642243001409A
:080D5400283001402C30014061
:100A100081B0002149B204480160044801600448E3
:100A2000016001B0704700BF000626422006264242
:040A30002406264230
:1009740081B0012149B2044801600448016004487F
:10098400016001B0704700BF0006264220062642DF
:0409940024062642CD
:10130C0081B0CDF800E0FFF7EBFB044A04490A601A
:10131C000020DDF800E001B0704700BF790C000040
:04132C00900000200D
:100AEC0082B0CDF800E00346214A22490A60224A2E
:100AFC0022490A60224A23490A60234A23490A6090
:100B0C0001932348FFF790FF019B012252B2214928
:100B1C000A6000BF00BF00BFFFF738FFFFF75AFFA6
:100B2C0040F2E83100FB01F210461901914205D95F
:100B3C00012252B218490A605A0804E0002252B24B
:100B4C0015490A601A46C100B1FBF2F1491C4B0869
:100B5C009A0912490A6003F03F0211490A606022A7
:100B6C0010490A60FFF724FFDDF800E002B070477F
:100B7C00790C00009C000020FFFFFFFFA00000206C
:100B8C00FFFFFFFFA4000020FFFFFFFFA8000020D5
:100B9C00901D000008C3FC4314061C4224E00040D6
:080BAC0028E000402CE00040AD
:1009980081B0002149B2044801600448016004485C
:1009A800016001B0704700BF00061C4220061C42CF
:0409B80024061C42B3
:1009BC0081B0012149B20448016004480160044837
:1009CC00016001B0704700BF00061C4220061C42AB
:0409DC0024061C428F
:10113C0081B0CDF800E0FFF7A7FD044A04490A602E
:10114C000020DDF800E001B0704700BFED0B00009F
:04115C0090000020DF
:1017CC0083B0CDF800E0024610460D228DF80820BB
:1017DC000A228DF809201FE0FFF782FD23E0027832
:1017EC002AB10190FFF77CFD0198401CF7E71AE045
:1017FC0002782AB10190FFF773FD0198401CF7E7BE
:10180C0002AA1046FFF76CFD0DF109021046FFF716
:10181C0067FD08E0062007E00029DDD00129DED0B5
:10182C000229E5D0F6E70020DDF800E003B07047B0
:1012EC0081B0CDF800E00178CCB2A0B2034C2468F8
:1012FC00A0470020DDF800E001B07047900000200E
:100C400081B00449096801B1FBE70349086001B0BC
:0C0C5000704700BF1403184200C00040B1
:100C240081B00449096801B1FBE70349086001B0D8
:0C0C3400704700BF14031A4200D00040BB
:100C780081B00449096801B1FBE70349086001B084
:0C0C8800704700BF14031C4200E0004055
:100C5C0081B00449096801B1FBE70349086001B0A0
:0C0C6C00704700BF14031E4200F000405F
:100BD00081B00449096801B1FBE70349086001B02D
:0C0BE000704700BF1403204200000140D9
:100BB40081B00449096801B1FBE70349086001B049
:0C0BC400704700BF1403224200100140E3
:100C080081B00449096801B1FBE70349086001B0F4
:0C0C1800704700BF14032442002001407C
:100BEC0081B00449096801B1FBE70349086001B011
:0C0BFC00704700BF140326420030014087
:1019780081B0CDF800E00A48FFF7AEFF0120FFF77D
:101988009FFF0020FFF7ECFE4FF40070FFF706FD05
:10199800FFF7F2FEFFF7D8FEDDF800E001B0704770
:0419A8006C1E0000B1
:1018E00081B0CDF800E0FFF723FDDDF800E001B0A6
:0218F00070473F
:1013300000F208010A6804490A6000F218010A680C
:1013400002490A60704700BFAC000020B0000020D6
:1018C80081B0CDF800E0034C2468A047DDF800E0C3
:0818D80001B07047AC000020D4
:0C135C0001490860704700BF907FB84254
:0C0F600001490860704700BF807FB84264
:0C0EB80001490860704700BF807FB24213
:0C0EAC0001490860704700BF887FB04219
:0C0EC40001490860704700BF947FB042F5
:0C0EDC0001490860704700BF907FB042E1
:0C0ED00001490860704700BF807FB642F7
:0C0E880001490860704700BF907FBA422B
:0C0E7C0001490860704700BF987FB44235
:0C0E940001490860704700BF9C7FB44219
:0C0EA00001490860704700BF887FB24223
:0C0EE80001490860704700BF8C7FB242D7
:0C0F3C0001490860704700BF947FB84274
:0C0F540001490860704700BF847FB8426C
:0C0F480001490860704700BF947FB2426E
:0C0F240001490860704700BF887FB042A0
:0C0F000001490860704700BF947FB042B8
:0C0EF40001490860704700BF907FB042C9
:0C0F180001490860704700BF847FB642AA
:0C0F0C0001490860704700BF987FB642A2
:0C0F300001490860704700BF907FB44288
:0C13500001490860704700BF947FB44260
:0C13680001490860704700BF887FB24256
:0C13980001490860704700BF8C7FB24222
:1017680081B0CDF800E0034C2468A047DDF800E024
:0817780001B07047B000002031
:1013A40081B0CDF800E08246CAF3000149B10021C2
:1013B40002B440F20063002208219948FFF718F8AC
:1013C40001B0CAF3400149B1002102B440F2006304
:1013D400002204219248FFF70BF801B0CAF3800100
:1013E40049B1002102B440F20063002202218C487A
:1013F400FEF7FEFF01B0CAF3C00149B1002102B4F7
:1014040040F20063002201218548FEF7F1FF01B09C
:10141400CAF3001149B1002102B440F20063002272
:1014240080218048FEF7E4FF01B0CAF3401149B1BE
:10143400002102B440F20063002240217948FEF703
:10144400D7FF01B0CAF3801149B1002102B440F2C0
:101454000063002220217348FEF7CAFF01B0CAF3DB
:10146400C01149B1002102B440F2006300221021EE
:101474006C48FEF7BDFF01B0CAF3002149B1002159
:1014840002B440F20063002220216548FEF7B0FF59
:1014940001B0CAF3402149B1002102B440F2006313
:1014A400002210215E48FEF7A3FF01B0CAF3802199
:1014B40049B1002102B440F20063002210215A48CD
:1014C400FEF796FF01B0CAF3C02149B1002102B46E
:1014D40040F20063002220215348FEF789FF01B047
:1014E400CAF3003149B1002102B440F20063002282
:1014F40008214C48FEF77CFF01B0CAF3403149B1E2
:10150400002102B440F20063002204214548FEF7A2
:101514006FFF01B0CAF3803149B1002102B440F237
:101524000063002202213F48FEF762FF01B0CAF3C4
:10153400C03149B1002102B440F20063002201210C
:101544003848FEF755FF01B0CAF3004149B1002104
:1015540002B440F20063002201213448FEF748FF40
:1015640001B0CAF3404149B1002102B440F2006322
:10157400002202212D48FEF73BFF01B0CAF380414F
:1015840049B1002102B440F200630022042127483B
:10159400FEF72EFF01B0CAF3C04149B1002102B4E5
:1015A40040F20063002208212048FEF721FF01B029
:1015B400CAF3005149B1002102B440F20063002291
:1015C40080211748FEF714FF01B0CAF3405149B116
:1015D400002102B440F20063002240211048FEF7CB
:1015E40007FF01B0CAF3805149B1002102B440F2AF
:1015F4000063002202210E48FEF7FAFE01B0CAF38E
:10160400C05149B1002102B440F20063002201211B
:101614000748FEF7EDFE01B0DDF800E001B07047C9
:1016240000C0054000B00540009005400010064091
:04163400005006401C
:1017800081B0CDF800E00C490C480160012149B25C
:101790000B480160FFF7B4FCFFF7B2FC002149B22F
:1017A0000848016008480160064801600648016079
:1017B000DDF800E001B07047391600009400002009
:0C17C00000C7FC430007704204077042A1
:1011000040F22607C0F200077F1EFDD100BF00BFDE
:0811100000BF00BF00BF7047E3
:1017500040F6FE07C0F23D077F1EFDD100BF00BF6F
:0817600000BF00BF00BF70478D
:1018F80081B0CDF800E00920FFF79AFE0E49086094
:10190800084600680D49FFF7EFFE0D480121FFF773
:1019180059FF02210948FFF755FF42F6FE47C0F27A
:1019280031177F1EFDD100BF00BF00BF00BF00BF41
:10193800DDF800E001B07047280000202C000020EE
:041948001400002067
:1016380081B0002252B21D490A6000231C4A118859
:1016480063F30F31118043F210221A490A60C3B2C2
:10165800194A117863F3030111700F2804D9012284
:1016680052B216490A6003E0002252B213490A60D6
:1016780001235BB212490B6012490B60002252B27F
:1016880011490A6009490B6010490B6010490B6049
:1016980010490B6010490B6010490B60104909682C
:1016A80001B9FBE70F49086801B070470C007042A8
:1016B8001480034020800340A0800340001770423C
:1016C8008414704288147042001670428C01704273
:1016D8008801704284017042800170420C0570429A
:0816E8008C007042A880034051
:1016F00082B0ADF8040001AD6A1C12781309DBB2A8
:10170000114AD21812780A704C1C6A1C127802F026
:101710000F03DBB20C4AD218127822708C1C2A7884
:101720001309DBB2084AD21812782270CC1C2A782E
:1017300002F00F03DBB2044AD218127822700B1D9C
:0C17400000221A7002B07047F31E000077
:101AA80081B0CDF800E0344A344B354C354D364ED4
:101AB8004FF03011354801600021354801606FF062
:101AC800010003EA000133480160C3F3C00018B9FC
:101AD800FFF742FFFFF740FFC3F3000018B10121F1
:101AE80049B22D4801602D48864203D92C49274820
:101AF800016021E02B48864203D92B492348016025
:101B08001AE04CF25030864203D928491F48016038
:101B180012E047F23050864203D925491B4801603C
:101B28000AE0B6F57A5F03D922491848016003E054
:101B38004FF03011154801601F4804601F480560C8
:101B48006FF0805002EA000111480160012149B29A
:101B58001B4801601B48016002F0805038B11A48E8
:101B6800006800B9FBE7012149B218480160DDF8B7
:101B780000E001B0704700BF0400303311000000DE
:101B88001800800000000000C0D40100C0E00F4031
:101B9800B0E00F407CE00F40800FFC43A0860100BE
:101BA800960130008038010055013000D300300024
:101BB800B20030007100300060E10F4064E10F4076
:101BC8007C16FC437816FC43002DFC437016FC433E
:1019600041F67E27C0F206077F1EFDD100BF00BFF3
:0819700000BF00BF00BF70477B
:101A700081B002490248016001B07047C0D4010042
:041A800098000020AA
:081A3C0081B0FEE701B0704724
:101A440081B04EF68850CEF20000016841F4700176
:101A5400016000BF00BF00BF00BFF1EE100A40F4F8
:0A1A64004000E1EE100A01B07047E7
:101F040000B5DFF814B0DFF814A0DFF814C0FFF751
:101F14001BFD00BD704700BF00000020270000200B
:041F2400CC1E0000CF
:101F840000B5DFF810B0DFF810A0FFF737FD00BD93
:0C1F9400704700BF00000020B4000020D7
:101BD80000F00540400040050100000000F005400D
:101BE8008000400501000000000000000000000027
:101BF80000000000000000000000000000000000DD
:101C080000000000000000000000000000000000CC
:101C180000000000000000000000000000000000BC
:101C280000000000000000000000000000000000AC
:101C3800000000000000000000000000000000009C
:101C4800000000000000000000000000000000008C
:101C5800000000000000000000000000000000007C
:101C6800000000000000000000000000000000006C
:101C7800000000000000000000000000000000005C
:101C8800000000000000000000000000000000004C
:101C9800000000000000000000000000000000003C
:0C1CA8000000000000000000020000002E
:101CB40000A00540100040050100000000A0054000
:101CC40020004005010000000000000000000000AA
:101CD4000000000000000000000000000000000000
:101CE40000000000000000000000000000000000F0
:101CF40000000000000000000000000000000000E0
:101D040000000000000000000000000000000000CF
:101D140000000000000000000000000000000000BF
:101D240000000000000000000000000000000000AF
:101D3400000000000000000000000000000000009F
:101D4400000000000000000000000000000000008F
:101D5400000000000000000000000000000000007F
:101D6400000000000000000000000000000000006F
:101D7400000000000000000000000000000000005F
:0C1D840000000000000000000200000051
:101D900000B00540100040050100000000B0054003
:101DA00020004005010000000000000000000000CD
:101DB0000000000000000000000000000000000023
:101DC0000000000000000000000000000000000013
:101DD0000000000000000000000000000000000003
:101DE00000000000000000000000000000000000F3
:101DF00000000000000000000000000000000000E3
:101E000000000000000000000000000000000000D2
:101E100000000000000000000000000000000000C2
:101E200000000000000000000000000000000000B2
:101E300000000000000000000000000000000000A2
:101E40000000000000000000000000000000000092
:101E50000000000000000000000000000000000082
:0C1E600000000000000000000200000074
:101E6C005D130000610F0000B90E0000AD0E000004
:101E7C00C50E0000DD0E0000D10E0000890E000022
:101E8C007D0E0000950E0000A10E0000E90E000072
:101E9C00FFFFFFFFFFFFFFFFFFFFFFFFFFFFFFFF46
:101EAC00FFFFFFFFFFFFFFFFFFFFFFFFFFFFFFFF36
:101EBC00FFFFFFFFFFFFFFFFFFFFFFFFFFFFFFFF26
:101ECC002D2D2D2053797374656D20496E69742006
:041EDC002D2D2D007B
:101EE00020536C696465722076616C7565203A20B8
:101EF0003078003031323334353637383941424367
:031F00004445460F
:00000001FF
