:02000004000BEF
:10000000FCFF002005170B00AD160B00AD160B0012
:10001000AD160B00AD160B00AD160B00AD160B00A8
:10002000AD160B00AD160B00AD160B00AD160B0098
:10003000AD160B00AD160B00AD160B00AD160B0088
:10004000AD160B00AD160B00AD160B00AD160B0078
:10170400FFF7ECFF00F010F8FFF7D2FF00F032FA19
:1017140000F05AF800F0EEF9FFF75CFFFFF782FFE4
:08172400FFF72EFFFCE7FEE7D2
:10165C0081B01CF8019B0BF8019BBBEB0A0FF8D176
:04166C0001B0704712
:1016700081B04FF000094FF0000CBDEB0A0F04DC05
:10168000BDEB0B0F01DBD446EA464BF8049BBBEBEA
:101690000A0FFAD1BCEB0A0F05DDE246D9F800B01B
:0A16A0000BF1040BF1E701B07047F5
:1015D80081B0CDF800E0002206210020FFF76CFF63
:1015E800002202210020FFF767FF42F2805101200C
:1015F800FFF796FF09480221FFF726FF46F6FE1778
:10160800C0F2180700BF00BF7F1EFDD100BF00BF9A
:1016180000BFDDF800E001B0704700BF0000002007
:1014C00081B0CDF800E05FFA81F95FFA82FA1DE0A1
:1014D0005FFA8AF15FFA89F0FFF7E0FC1FE05FFA3C
:1014E0008AF15FFA89F0FFF7ABFB18E05FFA8AF147
:1014F0005FFA89F0FFF7C2FA11E05FFA8AF15FFA4A
:1015000089F0FFF7ADFD0AE0012008E00028DFD0F8
:101510000128E4D00228E9D00328EED0F4E7DDF872
:0615200000E001B070477D
:100E9C0081B0CDF800E0A9E0012905D140F20101B3
:100EAC006548FFF78FFD04E040F201016248FFF74F
:100EBC0099FCBBE0012905D140F220015F48FFF706
:100ECC0081FD04E040F220015C48FFF78BFCADE0B3
:100EDC00012905D140F208015948FFF773FD04E0E0
:100EEC0040F208015648FFF77DFC9FE0012905D12F
:100EFC0040F210015348FFF765FD04E040F2100189
:100F0C005048FFF76FFC91E0012905D140F24001F8
:100F1C004C48FFF757FD04E040F240014948FFF709
:100F2C0061FC83E0012905D140F210014448FFF730
:100F3C0049FD04E040F210014148FFF753FC75E015
:100F4C00012905D140F210013F48FFF73BFD04E0B9
:100F5C0040F210013C48FFF745FC67E0012905D140
:100F6C0040F201013748FFF72DFD04E040F201018A
:100F7C003448FFF737FC59E0012905D140F2200134
:100F8C003248FFF71FFD04E040F220012F48FFF725
:100F9C0029FC4BE0012905D140F210012B48FFF749
:100FAC0011FD04E040F210012848FFF71BFC3DE066
:100FBC00012905D140F201012548FFF703FD04E0AA
:100FCC0040F201012248FFF70DFC2FE0012905D169
:100FDC0040F280011A48FFF7F5FC04E040F2800172
:100FEC001748FFF7FFFB21E0012020E000283FF429
:100FFC0053AF01283FF45EAF02283FF469AF0328DA
:10100C003FF474AF04283FF47FAF05283FF48AAF58
:10101C0006283FF495AF0728A0D00828ACD00928A3
:10102C00B8D00A28C4D00B28D0D0DDE70020DDF8DA
:10103C0000E001B0704700BF00120840801008406B
:10104C000010084060100840601108400011084072
:04105C002010084018
:1009D00081B0CDF800E0044AC9B2FFF7FFFCDDF8B2
:0C09E00000E001B0704700BF00041000F0
:1003DC0081B01446314B984203D8314B984200D32C
:1003EC0000E058E02E4BC31A03F01F0303B152E098
:1003FC00064600F5A0624FF6FF7304EA03031846A5
:10040C00284B04EA03031B0C40F20008CFB2014650
:10041C001846B8F1080F3ED201231BB203FA08F3B9
:10042C001BB21CB207EA0403A34231D101F44053BE
:10043C008BB14FEA8803F5182C686FF4405304EA2B
:10044C0003032B604FEA8803F51801F440542B6822
:10045C0023432B601CE04FEA8803F5182C68114BE2
:10046C0004EA03032B604FEA8803F41823680B4358
:10047C0023604FEA8803D5182C686FF0FF0304EA59
:10048C0003032B604FEA8803D418236803432360CB
:10049C0008F10108BDE701B0704700BFC012084069
:0804AC00001008400000FFFFF2
:1007F00081B0CDF800E0044AC9B2FFF7EFFDDDF8A3
:0C08000000E001B0704700BF00062000BF
:100C400081B0CDF800E0A9E0012905D140F2020110
:100C50006548FFF7BDFE04E040F202016248FFF77D
:100C6000C7FDBBE0012905D140F280015F48FFF7D5
:100C7000AFFE04E040F280015C48FFF7B9FDADE053
:100C8000012905D140F220015948FFF7A1FE04E0F7
:100C900040F220015648FFF7ABFD9FE0012905D146
:100CA00040F210015348FFF793FE04E040F21001B8
:100CB0005048FFF79DFD91E0012905D140F2400128
:100CC0004C48FFF785FE04E040F240014948FFF739
:100CD0008FFD83E0012905D140F210014648FFF75E
:100CE00077FE04E040F210014348FFF781FD75E014
:100CF000012905D140F204013F48FFF769FE04E0F5
:100D000040F204013C48FFF773FD67E0012905D17B
:100D100040F204013948FFF75BFE04E040F20401B1
:100D20003648FFF765FD59E0012905D140F2200161
:100D30003348FFF74DFE04E040F220013048FFF752
:100D400057FD4BE0012905D140F210012C48FFF777
:100D50003FFE04E040F210012948FFF749FD3DE065
:100D6000012905D140F201012648FFF731FE04E0D8
:100D700040F201012348FFF73BFD2FE0012905D197
:100D800040F280011C48FFF723FE04E040F280019E
:100D90001948FFF72DFD21E0012020E000283FF455
:100DA00053AF01283FF45EAF02283FF469AF032838
:100DB0003FF474AF04283FF47FAF05283FF48AAFB7
:100DC00006283FF495AF0728A0D00828ACD0092802
:100DD000B8D00A28C4D00B28D0D0DDE70020DDF839
:100DE00000E001B0704700BF0012084080100840CA
:100DF000C011084060100840001008402011084051
:080E0000001108402010084019
:100A7C0081B0CDF800E0A9E0012905D140F20801D0
:100A8C006548FFF79FFF04E040F208016248FFF75A
:100A9C00A9FEBBE0012905D140F220015F48FFF718
:100AAC0091FF04E040F220015C48FFF79BFEADE0B3
:100ABC00012905D140F201015948FFF783FF04E0F9
:100ACC0040F201015648FFF78DFE9FE0012905D148
:100ADC0040F220015348FFF775FF04E040F220017B
:100AEC005048FFF77FFE91E0012905D140F2040147
:100AFC004C48FFF767FF04E040F204014948FFF758
:100B0C0071FE83E0012905D140F202014548FFF74F
:100B1C0059FF04E040F202014248FFF763FE75E022
:100B2C00012905D140F208013D48FFF74BFF04E0D5
:100B3C0040F208013A48FFF755FE67E0012905D15C
:100B4C0040F201013848FFF73DFF04E040F201019B
:100B5C003548FFF747FE59E0012905D140F2200145
:100B6C003248FFF72FFF04E040F220012F48FFF737
:100B7C0039FE4BE0012905D140F210012B48FFF75B
:100B8C0021FF04E040F210012848FFF72BFE3DE066
:100B9C00012905D140F220012548FFF713FF04E09D
:100BAC0040F220012248FFF71DFE2FE0012905D15C
:100BBC0040F210011E48FFF705FF04E040F210015F
:100BCC001B48FFF70FFE21E0012020E000283FF436
:100BDC0053AF01283FF45EAF02283FF469AF0328FE
:100BEC003FF474AF04283FF47FAF05283FF48AAF7D
:100BFC0006283FF495AF0728A0D00828ACD00928C8
:100C0C00B8D00A28C4D00B28D0D0DDE70020DDF8FE
:100C1C0000E001B0704700BF00120840C01108404E
:100C2C00A010084040110840601008400011084016
:040C3C00A0110840BB
:1010600081B0CDF800E0A9E0012905D140F280016E
:101070006548FFF7ADFC04E040F280016248FFF7ED
:10108000B7FBBBE0012905D140F210015F48FFF733
:101090009FFC04E040F210015C48FFF7A9FBADE0C3
:1010A000012905D140F280015948FFF791FC04E085
:1010B00040F280015648FFF79BFB9FE0012905D1D4
:1010C00040F220015348FFF783FC04E040F2200186
:1010D0005048FFF78DFB91E0012905D140F2040152
:1010E0004C48FFF775FC04E040F204014948FFF763
:1010F0007FFB83E0012905D140F202014548FFF75B
:1011000067FC04E040F202014248FFF771FB75E022
:10111000012905D140F210013F48FFF759FC04E0D6
:1011200040F210013C48FFF763FB67E0012905D15D
:1011300040F204013948FFF74BFC04E040F204019F
:101140003648FFF755FB59E0012905D140F220014F
:101150002D48FFF73DFC04E040F220012A48FFF74C
:1011600047FB4BE0012905D140F210012648FFF76B
:101170002FFC04E040F210012348FFF739FB3DE06B
:10118000012905D140F220012048FFF721FC04E0AD
:1011900040F220011D48FFF72BFB2FE0012905D16C
:1011A00040F210011948FFF713FC04E040F210016F
:1011B0001648FFF71DFB21E0012020E000283FF446
:1011C00053AF01283FF45EAF02283FF469AF032814
:1011D0003FF474AF04283FF47FAF05283FF48AAF93
:1011E00006283FF495AF0728A0D00828ACD00928DE
:1011F000B8D00A28C4D00B28D0D0DDE70020DDF815
:1012000000E001B0704700BF00110840A011084085
:101210008010084040110840A010084020110840EC
:1015280081B0CDF800E011E00846FFF7ADFE16E007
:101538000846FFF7BDFE12E00846FFF76DFE0EE015
:101548000846FFF77DFE0AE0012008E00028EBD0FE
:101558000128EDD00228EFD00328F1D0F4E7DDF818
:0615680000E001B0704735
:1012900081B0CDF800E0002300220321FFF7B6FA69
:1012A000034A04490A600020DDF800E001B07047FD
:0812B00099090B002800002041
:10080C0084B0CDF800E01FFA82FB1FFA83FC0022B3
:10081C008DF80420ADF8081003904A48FFF75CFEF1
:10082C000398BDF808109DF80420ADF80410029050
:10083C00FFF746FE0298BDF804100025424C2570C7
:10084C000025424C2570B0F5E13F06D9404CA04242
:10085C0003D83F4CB4FBF0F308E0B0F5E13F04D80B
:10086C004FF4E134B4FBF0F300E00123ADF80410D5
:10087C000290FFF757FE0298BDF8041003F0FF0436
:10088C00E5B2344C25701C0A04F07F04E5B2324CFE
:10089C002570B0F5E13F06D92F4C247844F0800543
:1008AC002D4C257005E02C4C247804F07F052A4C47
:1008BC002570ADF80410FFF703FEBDF804100025F9
:1008CC00264C25700BE042F00100C0B20EE042F065
:1008DC000200C0B20AE042F00300C0B206E00129F7
:1008EC00F1D00229F3D00329F5D0F4E74FEA8C04B8
:1008FC00A4B240EA04044FEACB05ADB2E4B22C43F7
:10090C00E4B204F07F05154C25700025144C2570BD
:10091C000025144C2570144D144C2560144D154CA9
:10092C002560154D154C2560154D164C2560164C43
:10093C00247844F00105144C2570DDF800E004B077
:10094C00704700BFC0180B00F0270F4001240F4068
:10095C0060E3160000240F4001240F4003240F40D5
:10096C0004240F4002240F40FFFFFFFFA0000020D3
:10097C0099090B00A4000020FFFFFFFFA800002036
:0C098C00FFFFFFFFAC00002030270F40F1
:1004E40081B0CDF800E040F2000A81464FEA8A016B
:1004F40009EB01010968B1F1FF3F12D009F13401A0
:100504004FEA8A03C91809680A4609EB0301096816
:1005140008461146FFF744FF0AF1010A1FFA8AFA56
:0A052400E4E7DDF800E001B07047E5
:1003A40082B0CDF800E000F0FF02130902F00F0262
:1003B4001446D8B2FFF778FF012212B2A240ADF87A
:1003C400042000460A469DF8041000F005F8DDF804
:0603D40000E002B07047DA
:1002AC0081B027E028484DE028484BE0284849E039
:1002BC00284847E0284845E0284843E0284841E0E2
:1002CC0028483FE028483DE028483BE0284839E0F2
:1002DC00284837E0284835E0284833E0284831E002
:1002EC0028482FE028482DE028482BE0284829E012
:1002FC00284827E00028D5D00128D5D00228D5D011
:10030C000328D5D00428D5D00528D5D00628D5D09B
:10031C000728D5D00828D5D00928D5D00A28D5D07B
:10032C000B28D5D00C28D5D00D28D5D00E28D5D05B
:10033C000F28D5D01028D5D01128D5D01228D5D03B
:10034C001328D5D001B07047001008402010084089
:10035C00401008406010084080100840A010084071
:10036C00C0100840E010084000110840201108405F
:10037C00401108406011084080110840A01108404D
:10038C00C0110840E011084000120840201208403B
:08039C00401208406012084005
:1004CC0081B00448007800F07F010248017001B04F
:0804DC00704700BF03240F402C
:1005300081B00448007840F080010248017001B0A9
:08054000704700BF03240F40C7
:1012B80081B0CDF800E0002300220321FFF7A2FA55
:1012C800034A04490A600020DDF800E001B07047D5
:0812D80099090B002800002019
:1012200081B0CDF800E0002300220321FFF7EEFAA1
:10123000034A04490A600020DDF800E001B070476D
:0812400099090B0028000020B1
:1012480081B0CDF800E0002300220321FFF7DAFA8D
:10125800034A04490A600020DDF800E001B0704745
:0812680099090B002800002089
:1014500083B0CDF800E0024610460D228DF808203A
:101460000A228DF809201FE0FFF702FF23E002782F
:101470002AB10190FFF7FCFE0198401CF7E71AE043
:1014800002782AB10190FFF7F3FE0198401CF7E7BC
:1014900002AA1046FFF7ECFE0DF109021046FFF715
:1014A000E7FE08E0062007E00029DDD00129DED0B4
:1014B0000229E5D0F6E70020DDF800E003B0704730
:1012700081B0CDF800E00178CCB2E0B2034C246834
:10128000A0470020DDF800E001B0704728000020F2
:1009980082B0CDF800E08DF80400FFF793FD084918
:1009A800097801F02001C9B201B9F8E79DF80410EF
:1009B80001F0FF0203490A70DDF800E002B0704759
:0809C80005240F4000240F403C
:1007B80082B0CDF800E08DF80400FFF777FE084915
:1007C800097801F02001C9B201B9F8E79DF80410D1
:1007D80001F0FF0203490A70DDF800E002B070473B
:0807E80005280F4000280F4016
:1004B40081B00448007800F07F010248017001B067
:0804C400704700BF03280F4040
:10078800024A117860F30001117070479013084015
:10077800024A117860F345111170704784130840DC
:1007A800024A117860F3C301117070478013084042
:10079800024A117860F304111170704783130840FE
:100A6C00024A117860F386111170704783130840A5
:100A3C00024A117860F3041111707047801308405A
:100A4C00024A117860F30411117070478B1308403F
:100A5C00024A117860F3000111707047831308404B
:100A2C00024A117860F34511117070478813084021
:1009FC00024A117860F30411117070478813084093
:100A1C00024A117860F3000111707047811308408D
:100A0C00024A117860F3C7111170704780130840C7
:1009EC00024A117860F3410111707047901308406E
:10076800024A117860F3C71111707047841308406A
:1005C800024A117860F34511117070478E13084084
:1005D800024A117860F304111170704783130840C0
:1005B800024A117860F3861111707047831308405E
:10059800024A117860F30411117070478013084003
:1005A800024A117860F38201117070478013084085
:1005E800024A117860F3820111707047891308403C
:10062800024A117860F34511117070478813084029
:10063800024A117860F3041111707047881308405A
:10061800024A117860F30001117070478113084095
:1005F800024A117860F3C7111170704780130840E0
:10060800024A117860F3C3011170704790130840D3
:10054800024A117860F34511117070478E13084004
:10055800024A117860F30001117070478513084052
:10056800024A117860F34511117070478A130840E8
:10058800024A117860F38201117070478A1308409B
:10057800024A117860F34101117070478A130840EC
:10064800024A117860F3C30111707047851308409E
:10070800024A117860F300011170704783130840A2
:10071800024A117860F34511117070478813084038
:1006E800024A117860F304111170704788130840AA
:1006F800024A117860F34511117070478D13084054
:10074800024A117860F30411117070478D13084044
:10075800024A117860F3C711117070478813084076
:10072800024A117860F30411117070478D13084064
:10073800024A117860F3C71111707047841308409A
:1006D800024A117860F34511117070478A13084077
:10067800024A117860F38201117070478A130840AA
:10068800024A117860F34101117070478A130840DB
:10065800024A117860F3041111707047851308403D
:10066800024A117860F382011170704789130840BB
:1006B800024A117860F34511117070478813084099
:1006C800024A117860F304111170704788130840CA
:10069800024A117860F34511117070478D130840B4
:1006A800024A117860F30411117070478D130840E5
:1016280081B0CDF800E00A48FFF79EFF0120FFF7E0
:1016380071FE0120FFF762FEFFF74EFE0120FFF763
:1016480075FEFFF7F5FEDDF800E001B0704700BF5A
:04165800601A0B0009
:1015700081B0CDF800E0FFF781FCDDF800E001B0BC
:021580007047B2
:100E7C0000F208010A6804490A6000F218010A68C5
:100E8C0002490A60704700BFB0000020B400002087
:10131C0081B0CDF800E0034C2468A047DDF800E074
:08132C0001B07047B000002081
:1013040081B0CDF800E0034C2468A047DDF800E08C
:0813140001B07047B400002095
:1012E00081B00549054801600548006840F00101EA
:1012F0000348016001B07047090E0B009400002004
:04130000007C00402D
:1013340081B0CDF800E05FFA80FB0BF00101C9B287
:1013440011B11448FFF7CCF80BF00201C9B211B186
:101354001148FFF7C5F80BF00401C9B211B10F48E9
:10136400FFF7BEF80BF00801C9B211B10C48FFF742
:10137400B7F80BF01001C9B211B10A48FFF7B0F881
:101384000949C1F800B00949C1F800B0DDF800E02E
:1013940001B0704790190B00F8190B0028190B00C5
:1013A400F0170B0058180B000C7C0040107C004018
:1014380046F6FE17C0F2180700BF00BF7F1EFDD199
:0814480000BF00BF00BF7047A8
:1015840081B0CDF800E00120FFF740FF0E4908606C
:10159400084600680D49FFF70BFF0D480121FFF7CE
:1015A40055FF02210948FFF751FF41F2FE17C0F22F
:1015B4007A0700BF00BF7F1EFDD100BF00BF00BF80
:1015C400DDF800E001B070472C000020300000205E
:0415D40014000020DF
:1014100081B0CDF800E05FFA80FCFFF761FF5FFA72
:101420008CF0FFF787FF5FFA8CF0FFF7EDFCDDF83B
:0614300000E001B070476E
:100E080081B01649096841F0020214490A60134981
:100E1800096801F08001002900D1F8E710E01049C5
:100E2800086818E00F49086815E00F49086812E0DB
:100E38000E4908680FE00E4908680CE000200AE037
:100E48000128ECD00228EDD00428EED00828EFD0F5
:100E5800A028F0D0F2E701B0704700BF007C004046
:100E6800147C0040187C00401C7C0040207C004022
:040E7800247C004096
:1013B40082B0ADF8040001AD6A1C12781309DBB2E7
:1013C400114AD21812780A704C1C6A1C127802F066
:1013D4000F03DBB20C4AD218127822708C1C2A78C4
:1013E4001309DBB2084AD21812782270CC1C2A786E
:1013F40002F00F03DBB2044AD218127822700B1DDC
:0C14040000221A7002B07047E71A0B00BB
:10172C0081B0CDF800E01F4B1F4A204C20480068C8
:10173C0040F002011E480160012A08D0032A06D09D
:10174C00042A04D0102A02D0302A00D002E0194812
:10175C00026002E0012117480160C4F3C00216497F
:10176C00086862F3C3000860C4F380021249086879
:10177C0062F382000860C4F340020F49086862F308
:10178C0041000860C4F300020B49086862F30000D2
:10179C000860FFF74BFE09480360DDF800E001B07C
:1017AC00704700BFE00100000100000000000000D5
:1017BC0008E000E00401084008A4004008010840CB
:1017CC0081B004490448016004490548016001B036
:1017DC00704700BF80BB0000980000200000000094
:0417EC009C0000203D
:0816AC0081B0FEE701B07047B8
:1016B40081B04EF68850CEF20000016841F470010A
:1016C400016000BF00BF00BF00BFF1EE100A40F48C
:0A16D4004000E1EE100A01B070477B
:1016E00081B0DFF81000DFF810100860D0F800D0EB
:1016F00000F004B800000B0008ED00E000BF01B0EE
:02170000704730
:101AF80000B5DFF814B0DFF814A0DFF814C0FFF762
:101B0800A9FD00BD704700BF00000020270000208D
:041B1800C01A0B00E4
:101B780000B5DFF810B0DFF810A0FFF775FD00BD65
:0C1B8800704700BF00000020B8000020E3
:1017F00003010000FFFFFFFF0000000000000000E9
:1018000000000000000000000000000000000000D8
:1018100000000000000000000000000000000000C8
:1018200000000000001000000000000000000000A8
:1018300000000000000000000000000000000000A8
:101840000000000000000000000000000000000098
:08185000000000000000000090
:1018580004010000FFFFFFFF00000000000000007F
:101868000000000000000000000000000000000070
:101878000000000000000000000000000000000060
:101888000000000000100000000000000000000040
:101898000000000000000000000000000000000040
:1018A8000000000000000000000000000000000030
:0818B800000000000000000028
:1018C0008500000084000000FFFFFFFF0000000013
:1018D0000000000000000000000000000000000008
:1018E00000000000000000000000000000000000F8
:1018F00000000000001000000010000000000000C8
:1019000000000000000000000000000000000000D7
:1019100000000000000000000000000000000000C7
:081920000000000000000000BF
:1019280002010000FFFFFFFF0000000000000000B0
:10193800000000000000000000000000000000009F
:10194800000000000000000000000000000000008F
:10195800000000000010000000000000000000006F
:10196800000000000000000000000000000000006F
:10197800000000000000000000000000000000005F
:08198800000000000000000057
:1019900000010000FFFFFFFF00000000000000004A
:1019A0000000000000000000000000000000000037
:1019B0000000000000000000000000000000000027
:1019C0000000000000100000000000000000000007
:1019D0000000000000000000000000000000000007
:1019E00000000000000000000000000000000000F7
:0819F0000000000000000000EF
:1019F80001010000FFFFFFFF0000000000000000E1
:101A080000000000000000000000000000000000CE
:101A180000000000000000000000000000000000BE
:101A2800000000000010000000000000000000009E
:101A3800000000000000000000000000000000009E
:101A4800000000000000000000000000000000008E
:081A5800000000000000000086
:101A600089070B0079070B00A9070B0099070B00EA
:101A70006D0A0B003D0A0B004D0A0B005D0A0B00BE
:101A80002D0A0B00FD090B001D0A0B000D0A0B00AF
:101A9000FFFFFFFFFFFFFFFFFFFFFFFFFFFFFFFF56
:101AA000FFFFFFFFFFFFFFFFFFFFFFFFFFFFFFFF46
:101AB000FFFFFFFFFFFFFFFFFFFFFFFFFFFFFFFF36
:101AC0002D2D2D2053797374656D20496E69742016
:041AD0002D2D2D008B
:101AD40020536C696465722076616C7565203A20C8
:101AE4003078003031323334353637383941424377
:031AF40044454620
:00000001FF
