:10000000FCFF0020191F0000D11E0000D11E0000BF
:10001000D11E0000D11E0000D11E0000D11E000024
:10002000D11E0000D11E0000D11E0000D11E000014
:10003000D11E0000D11E0000D11E0000D11E000004
:10004000D11E0000D11E0000D11E0000D11E0000F4
:10005000D11E0000D11E0000D11E0000D11E0000E4
:10006000D11E0000D11E0000D11E0000D11E0000D4
:10007000D11E0000D11E0000D11E0000D11E0000C4
:10008000D11E0000D11E0000D11E0000D11E0000B4
:10009000D11E0000D11E0000D11E0000D11E0000A4
:1000A000D11E0000D11E0000D11E0000D11E000094
:1000B000D11E0000D11E0000D11E0000D11E000084
:1000C000D11E0000D11E0000D11E0000D11E000074
:1000D000D11E0000D11E0000D11E0000D11E000064
:1000E000D11E0000D11E0000D11E0000D11E000054
:1000F000D11E0000D11E0000D11E0000D11E000044
:101F180000F010F8FFF7DCFF00F0DAFAFFF7EEFF49
:101F280000F088FAFFF7A8FFFFF758FFFFF774FFE4
:041F3800FCE7FEE7DD
:101D7C0081B01CF8019B0BF8019BBBEB0A0FF8D14F
:041D8C0001B07047EB
:101DA80081B04FF000094FF0000CBDEB0A0F04DCC6
:101DB800BDEB0B0F01DBD446EA464BF8049BBBEBAB
:101DC8000A0FFAD1BCEB0A0F05DDE246D9F800B0DC
:0A1DD8000BF1040BF1E701B07047B6
:101E800081B0CDF800E0002206210020FFF79CFD84
:101E9000002202210020FFF797FD42F2805101202D
:101EA000FFF772FE09480221FFF7F0FD44F67D7747
:101EB000C0F2120700BF00BF7F1EFDD100BF00BFF0
:101EC00000BFDDF800E001B0704700BF1300002044
:1019C80081B0CDF800E05FFA81F95FFA82FA1DE094
:1019D8005FFA8AF15FFA89F0FFF766FD1FE05FFAA8
:1019E8008AF15FFA89F0FFF777FC18E05FFA8AF16D
:1019F8005FFA89F0FFF784FB11E05FFA8AF15FFA7A
:101A080089F0FFF739FE0AE0012008E00028DFD05E
:101A18000128E4D00228E9D00328EED0F4E7DDF865
:061A280000E001B0704770
:1014B00081B0CDF800E0A9E0012905D140F2010199
:1014C0006548FFF7CFFB04E040F201016348FFF7F6
:1014D000E7FBBBE0012905D140F240016048FFF77E
:1014E000C1FB04E040F240015E48FFF7D9FBADE0EC
:1014F000012905D140F201015948FFF7B3FB04E08F
:1015000040F201015748FFF7CBFB9FE0012905D1CD
:1015100040F220015448FFF7A5FB04E040F220010F
:101520005248FFF7BDFB91E0012905D140F280014F
:101530004D48FFF797FB04E040F280014B48FFF76E
:10154000AFFB83E0012905D140F240014648FFF797
:1015500089FB04E040F240014448FFF7A1FB75E03D
:10156000012905D140F280014148FFF77BFB04E0EF
:1015700040F280013F48FFF793FB67E0012905D166
:1015800040F210013A48FFF76DFB04E040F2100111
:101590003848FFF785FB59E0012905D140F20401E5
:1015A0003548FFF75FFB04E040F204013348FFF7E2
:1015B00077FB4BE0012905D140F208012E48FFF7E7
:1015C00051FB04E040F208012C48FFF769FB3DE0C5
:1015D000012905D140F220011F48FFF743FB04E039
:1015E00040F220011D48FFF75BFB2FE0012905D1E8
:1015F00040F210011848FFF735FB04E040F21001FB
:101600001648FFF74DFB21E0012020E000283FF4C1
:1016100053AF01283FF45EAF02283FF469AF0328BF
:101620003FF474AF04283FF47FAF05283FF48AAF3E
:1016300006283FF495AF0728A0D00828ACD0092889
:10164000B8D00A28C4D00B28D0D0DDE70020DDF8C0
:1016500000E001B0704700BF414C0040434C0040E7
:10166000404C0040424C0040004C0040024C0040C6
:10167000014C0040034C0040204C0040224C0040F4
:100C640081B0CDF800E0002424B240F240031BB26E
:100C740040F2040212B242EA03031BB240F2010240
:100C840012B243EA020293B2002210B4FFF74EFDFF
:0A0C940001B0DDF800E001B0704788
:1007300083B0CDF800E08DB20146D0B2BDF90C20F7
:1007400001F0010414B12F02BFB200E0AFB28F4C30
:100750000C1B640965018D4C6419A0468C4CA042A9
:1007600007D108F10406FD43ADB234882C40348033
:1007700007E0884CA04204D108F104052C883C43D2
:100780002C8040F2010403EA0404A4B23CB108F155
:100790000606FD43ADB234882C4034800AE040F2B6
:1007A000020403EA0404A4B224B108F106052C886B
:1007B0003C432C8040F2040403EA0404A4B23CB19C
:1007C00008F10806FD43ADB234882C4034800AE0BD
:1007D00040F2080403EA0404A4B224B108F10805B5
:1007E0002C883C432C8040F2100403EA0404A4B299
:1007F0003CB108F11806FD43ADB234882C4034807A
:100800000AE040F2200403EA0404A4B224B108F18F
:1008100018052C883C432C8040F2400403EA040471
:10082000A4B23CB108F11A06FD43ADB234882C40A5
:1008300034800AE040F2800403EA0404A4B224B144
:1008400008F11A052C883C432C8003F48074A4B270
:100850007CB908F10A06FD43ADB234882C403480DF
:1008600008F10C06FD43ADB234882C4034800020E2
:1008700087E01F2A01DD012083E0FFF737FF00201A
:10088000B9B2C7B24046102F80F07A8021FA07F43F
:10089000A4B204F00104A4B2002C00F06E8000F2B7
:1008A0000A06CD43ADB234882C40348000F20C06E9
:1008B000CD43ADB234882C40348003F48064A4B2BC
:1008C0002CB1ADF806100024ADF808400DE003F49B
:1008D0000064A4B22CB10024ADF80640ADF80810B5
:1008E00003E0ADF80610ADF8081000F20A063588EE
:1008F000BDF8064045EA0404348000F20C06358851
:10090000BDF8084045EA04043480234C041B640904
:10091000ADF80440214CA24218D0BDF80440E400D8
:10092000A4B265001E4C65197C08E4B264002E195F
:1009300007F00104E4B2E5002DB240F2FF04AC4040
:10094000A4B2E543ADB234882C403480BDF80440F5
:10095000E400A4B26500124C65197C08E4B264009E
:100960002E1907F00104E4B2E5002DB294B204FAA6
:1009700005F5ADB234882C4334807F1CFFB282E78A
:100980000020DDF800E003B0704700BF004C0040DD
:100990000000000001000000004C004000000000CA
:0409A00008500040BB
:1006EC0081B042F652510348018002210248018038
:0C06FC0001B07047005000400250004068
:100CA00081B0CDF800E0002424B240F240031BB232
:100CB00040F2040212B242EA03031BB240F2010204
:100CC00012B243EA020293B2012210B4FFF730FDE0
:0A0CD00001B0DDF800E001B070474C
:1012E00081B0CDF800E0A9E0012905D140F2080164
:1012F0006548FFF7B7FC04E040F208016348FFF7D8
:10130000CFFCBBE0012905D140F280016048FFF726
:10131000A9FC04E040F280015E48FFF7C1FCADE0AB
:10132000012905D140F204015B48FFF79BFC04E072
:1013300040F204015948FFF7B3FC9FE0012905D1B1
:1013400040F220015648FFF78DFC04E040F22001F6
:101350005448FFF7A5FC91E0012905D140F2800136
:101360004F48FFF77FFC04E040F280014D48FFF753
:1013700097FC83E0012905D140F240014848FFF77E
:1013800071FC04E040F240014648FFF789FC75E03B
:10139000012905D140F240014348FFF763FC04E016
:1013A00040F240014148FFF77BFC67E0012905D18D
:1013B00040F240013648FFF755FC04E040F240019E
:1013C0003448FFF76DFC59E0012905D140F20401D2
:1013D0003548FFF747FC04E040F204013348FFF7CB
:1013E0005FFC4BE0012905D140F208012E48FFF7D0
:1013F00039FC04E040F208012C48FFF751FC3DE0C5
:10140000012905D140F220012148FFF72BFC04E01F
:1014100040F220011F48FFF743FC2FE0012905D1CE
:1014200040F210011A48FFF71DFC04E040F21001E1
:101430001848FFF735FC21E0012020E000283FF4A8
:1014400053AF01283FF45EAF02283FF469AF032891
:101450003FF474AF04283FF47FAF05283FF48AAF10
:1014600006283FF495AF0728A0D00828ACD009285B
:10147000B8D00A28C4D00B28D0D0DDE70020DDF892
:1014800000E001B0704700BF214C0040234C0040F9
:10149000414C0040434C0040404C0040424C004016
:1014A000004C0040024C0040014C0040034C004006
:1011080081B0CDF800E0A9E0012905D140F2020143
:101118006548FFF7A3FD04E040F202016348FFF7CA
:10112800BBFDBBE0012905D140F280016048FFF713
:1011380095FD04E040F280015E48FFF7ADFDADE0AB
:10114800012905D140F240015948FFF787FD04E025
:1011580040F240015748FFF79FFD9FE0012905D164
:1011680040F220015448FFF779FD04E040F22001E5
:101178005248FFF791FD91E0012905D140F2400165
:101188004D48FFF76BFD04E040F240014B48FFF784
:1011980083FD83E0012905D140F280014648FFF72D
:1011A8005DFD04E040F280014448FFF775FD75E0FD
:1011B800012905D140F220014148FFF74FFD04E025
:1011C80040F220013F48FFF767FD67E0012905D19C
:1011D80040F201013C48FFF741FD04E040F2010103
:1011E8003A48FFF759FD59E0012905D140F20401B9
:1011F8003548FFF733FD04E040F204013348FFF7B8
:101208004BFD4BE0012905D140F208012E48FFF7BC
:1012180025FD04E040F208012C48FFF73DFD3DE0C4
:10122800012905D140F280012948FFF717FD04E0A4
:1012380040F280012748FFF72FFD2FE0012905D153
:1012480040F240012248FFF709FD04E040F2400166
:101258002048FFF721FD21E0012020E000283FF48D
:1012680053AF01283FF45EAF02283FF469AF03286B
:101278003FF474AF04283FF47FAF05283FF48AAFEA
:1012880006283FF495AF0728A0D00828ACD0092835
:10129800B8D00A28C4D00B28D0D0DDE70020DDF86C
:1012A80000E001B0704700BF404C0040424C004095
:1012B800214C0040234C0040804C0040824C0040B0
:1012C800604C0040624C0040014C0040034C004020
:0812D800204C0040224C0040B4
:1016800081B0CDF800E0A9E0012905D140F20801C0
:101690006548FFF7E7FA04E040F208016348FFF706
:1016A000FFFABBE0012905D140F220016048FFF7B5
:1016B000D9FA04E040F220015E48FFF7F1FAADE00C
:1016C000012905D140F210015948FFF7CBFA04E097
:1016D00040F210015748FFF7E3FA9FE0012905D1D6
:1016E00040F220015048FFF7BDFA04E040F220012B
:1016F0004E48FFF7D5FA91E0012905D140F24001AB
:101700004948FFF7AFFA04E040F240014748FFF7CD
:10171000C7FA83E0012905D140F280014248FFF772
:10172000A1FA04E040F280014048FFF7B9FA75E001
:10173000012905D140F220013F48FFF793FA04E068
:1017400040F220013D48FFF7ABFA67E0012905D1DF
:1017500040F202013848FFF785FA04E040F2020146
:101760003648FFF79DFA59E0012905D140F20401FE
:101770003148FFF777FA04E040F204012F48FFF701
:101780008FFA4BE0012905D140F208012A48FFF702
:1017900069FA04E040F208012848FFF781FA3DE0C9
:1017A000012905D140F280012548FFF75BFA04E0EA
:1017B00040F280012348FFF773FA2FE0012905D199
:1017C00040F240011E48FFF74DFA04E040F24001AC
:1017D0001C48FFF765FA21E0012020E000283FF4D3
:1017E00053AF01283FF45EAF02283FF469AF0328EE
:1017F0003FF474AF04283FF47FAF05283FF48AAF6D
:1018000006283FF495AF0728A0D00828ACD00928B7
:10181000B8D00A28C4D00B28D0D0DDE70020DDF8EE
:1018200000E001B0704700BF804C0040824C004097
:10183000214C0040234C0040014C0040034C004030
:08184000204C0040224C004046
:101B880081B0CDF800E015E00846FFF77DFE1CE0C7
:101B98000846FFF767FE18E00846FFF751FE14E015
:101BA8000846FFF779FA10E00846FFF763FA0CE0F9
:101BB80001200AE00028E7D00128E9D00228EBD06C
:101BC8000328EDD01028EFD0F2E7DDF800E001B0EF
:021BD800704754
:1018900081B0CDF800E0FFF721FA044A04490A605C
:1018A0000020DDF800E001B0704700BF950B00009C
:0418B00030000020E4
:100CDC0081B0CDF800E084460B4A0C490A600C4AFE
:100CEC000C490A600C4A0D490A600D4A0D490A600C
:100CFC000D48FFF765FE61460C48FFF7ABFEDDF8CB
:100D0C0000E001B0704700BF950B0000AC00002064
:100D1C00FFFFFFFFB0000020FFFFFFFFB40000202B
:100D2C00FFFFFFFFB80000205C210000001800400E
:1009CC0081B0CDF800E040F2000A814609F1D8016F
:1009DC0009788A453AD20C210AFB01F109EB010195
:1009EC008B460BF1080109781F2915D10BF1080171
:1009FC000978CCB20BF1060109888BB20BF104011A
:100A0C0009888AB2DBF80010084691B2002210B4B3
:100A1C00FFF788FE01B014E00BF108010978CCB2A5
:100A2C000BF1060109888BB20BF1040109888AB21B
:100A3C00DBF80010084691B2FF2210B4FFF772FEEB
:100A4C0001B00AF1010A5FFA8AFABFE7DDF800E0AB
:040A5C0001B070472E
:100A600081B0CDF800E007460C463846FFF728FD78
:100A700040F280013846FFF72BFD40F20001384676
:100A8000FFF700FD40F200013846FFF709FD40F294
:100A900000013846FFF728FD40F200013846FFF715
:100AA00003FE40F200013846FFF710FE21463846AB
:100AB000FFF740FD3846FFF7EDFDDDF800E001B03F
:020AC00070477D
:0E04C00081B0018841F00101018001B0704758
:1004D00081B003884FF63F7203EA0202028002886D
:0804E0000A43028001B07047DD
:1004840081B031B903884DF6FF7203EA020202809B
:0C04940002E002880A43028001B07047B9
:1004A00081B0B1F5006F03D102880A43028005E0F4
:1004B00003884FF2FF7203EA0202028001B0704724
:1004E80081B019E0038847F6FF7203EA020202802E
:1004F80019E0028842F40042028002880A4302801E
:1005080011E0028842F40042028003884BF6FF7231
:1005180003EA0202028006E00029E3D0B1F5804F29
:0A052800E7D00029EDD001B07047C4
:1006A80081B0B1F5807F04D1028842F48072028063
:1006B80005E003884FF6FF6203EA0202028001B0F8
:0206C800704779
:1006CC0081B0B1F5805F03D102880A43028005E056
:1006DC0003884EF6FF7203EA0202028001B07047F3
:1005340088B0CDF800E005460E4604AA1046FFF741
:10054400D3FE04AA11462846FFF726FF00EE900AC0
:10055400F8EE600A00EE106AB8EE400A80EE800AF7
:10056400B0EE401A01AA1046FFF732FFDDED010A92
:10057400FCEE600A10EE902A92B291B2414A00EE6B
:10058400902A20EE200ABCEE400A10EE100A80B237
:1005940005F2080423884FF6FE7203EA0202228061
:1005A40010292ED905F208031A8842F001021A8094
:1005B400B3EE000A81EE000ABCEE400A10EE102AE7
:1005C40092B2ADF80820B3EE000AC1EE000AB3EE11
:1005D400000A81EE000ABCEE400A10EE102A92B224
:1005E40000EE102AB8EE400A70EEC00AB3EE000A1C
:1005F40020EE800ABCEE400A10EE102A92B2ADF84A
:100604000A2020B90022ADF80C20284616E0012467
:100614002946242C11D263001B4AD2181288904216
:1006240008D2621E12B25300184AD2181288ADF8CA
:100634000C2002E0641CE4B2EBE70846831D0022B0
:100644001A80841D2388BDF8082043EA0202228010
:1006540000F208031A8802F001021A8000F208046A
:10066400BDF80C2013029BB2BDF80A20120192B20D
:1006740013439BB222881A432280DDF800E008B0BD
:10068400704700BF00401C46BC23000074230000D8
:1002EC0082B0CDF800E004462849096801F4E061C9
:1002FC00090A08462549096801F0E061090E0A4619
:10030C00214601911146FFF751FF019908601F49E1
:10031C00096801F07001090908461C49096801F4D3
:10032C00E001090D0A4604F2080101911146FFF79C
:10033C003DFF019908601549096801F07001090930
:10034C0008461249096801F0E041090F0A4604F217
:10035C000C0101911146FFF729FF019908600B4927
:10036C00096801F0070108460849096801F4E02111
:10037C00090C0A46211D01911146FFF717FF01993F
:10038C000860DDF800E002B0704700BF08040140CF
:1001B80081B0CDF800E002460846FFF7B3FFC3B2AE
:1001C80071E0424A126802F00102D2B140F2010025
:1001D800FFF792FF3D4A126802F001028AB13C4AD9
:1001E800126802F400422AB14FF4FA3292FBF3F299
:1001F800104666E048F20002B2FBF3F292B290B207
:100208005FE0344A1268B2FBF3F2104659E02F4A15
:10021800126802F00202D2B140F20200FFF76CFF4E
:100228002A4A126802F002028AB1294A126802F4C4
:1002380000422AB14FF4FA3292FBF3F2104640E042
:1002480048F20002B2FBF3F292B290B239E0224ACD
:100258001268B2FBF3F2104633E0204A1268B2FB90
:10026800F3F210462DE01A4A126802F400422AB14D
:100278004FF4FA3292FBF3F2104622E048F2000201
:10028800B2FBF3F292B290B21BE0FFF753FFB0FB60
:10029800F3F2104615E0124A1268B2FBF3F2104668
:1002A8000FE000200DE0002A3FF48BAF052AAED006
:1002B800012AD2D0022AD6D0032AE6D0042AEAD0CC
:1002C800EFE7DDF800E001B0704700BF48040140E7
:1002D80030040140A0000020A400002028000020D5
:0402E8002C000020C6
:10012C0081B0012109B2814009B208B201B0704717
:1001000081B0074A07490A600749096841EA0002C5
:1001100005490A60012203490A6001B0704700BF27
:0C0120005A690000000401405004014036
:10013C0082B01748006800F4E02114E015480190E3
:10014C0023E01548019020E0144801901DE014486C
:10015C0001901AE01348019017E01348019014E045
:10016C000020019011E00029E8D0B1F5803FE8D0E3
:10017C00B1F5003FE8D0B1F5403FE8D0B1F5802FA4
:10018C00E8D0B1F5A02FE8D0EAE7019802B07047AB
:10019C000404014060E31600C0C62D00808D5B0096
:0C01AC00001BB70000366E01006CDC0286
:10039C0081B0028802F0C00292B2920992B290B27D
:1003AC000AB900200EE0012802D10A68104609E0C3
:1003BC00022802D0032800D004E001F20C021268DB
:0803CC001046FFE701B0704785
:1003D40082B08DED010A9DED010AB5EEC00AF1EE81
:1003E40010FA0ADBDDED010AB7EE000AF4EEC00AEA
:1003F400F1EE10FA01DA012100E0002189B9DDED06
:10040400010ABFEE000AF4EEC00AF1EE10FA07DDAD
:100414009DED010AB5EEC00AF1EE10FA00DC00E031
:1004240008E04FF0000100EE101A00ED000A9DED07
:10043400010A23E001A90968C90D01F0FF017F3910
:1004440089B2182908D99DED010A00ED000A4FF080
:10045400000100EE101A11E09DED010ABDEE400A04
:1004640010EE101A00EE101AB8EEC00A00ED000AE1
:1004740050ED000A9DED010A30EE600A02B07047AB
:1006940081B002884FF6FE7102EA0101018001B0C7
:0206A40070479D
:10186C0081B0CDF800E0FFF727F9044A04490A607B
:10187C000020DDF800E001B0704700BFB10B0000A4
:04188C003000002008
:100AC40081B0CDF800E084460B4A0C490A600C4A18
:100AD4000C490A600C4A0D490A600D4A0D490A6026
:100AE4000D48FFF771FF61460C48FFF7B7FFDDF8CB
:100AF40000E001B0704700BFB10B0000AC00002063
:100B0400FFFFFFFFB0000020FFFFFFFFB400002045
:100B1400FFFFFFFFB800002038220000001400404F
:1018480081B0CDF800E0FFF739F9044A04490A608D
:101858000020DDF800E001B0704700BFB10B0000C8
:04186800300000202C
:1010A00081B0CDF800E0FFF70DFD044A04490A6065
:1010B0000020DDF800E001B0704700BFB10B000078
:0410C00030000020DC
:10107C0081B0CDF800E0FFF7B1FD044A04490A60E5
:10108C000020DDF800E001B0704700BFCD0B000080
:04109C003000002000
:100BE80081B0CDF800E084460B4A0C490A600C4AF3
:100BF8000C490A600C4A0D490A600D4A0D490A6001
:100C08000D48FFF7DFFE61460C48FFF725FFDDF8CA
:100C180000E001B0704700BFCD0B0000AC00002021
:100C2800FFFFFFFFB0000020FFFFFFFFB400002020
:100C3800FFFFFFFFB80000208020000000100040E8
:101A8C0083B0CDF800E0024610460D228DF80820F8
:101A9C000A228DF809201FE0FFF7DAFA23E002781A
:101AAC002AB10190FFF7D4FA0198401CF7E71AE02D
:101ABC0002782AB10190FFF7CBFA0198401CF7E7A6
:101ACC0002AA1046FFF7C4FA0DF109021046FFF7FF
:101ADC00BFFA08E0062007E00029DDD00129DED09E
:101AEC000229E5D0F6E70020DDF800E003B07047EE
:10105C0081B0CDF800E00178CCB2A0B2034C24688A
:10106C00A0470020DDF800E001B070473000002000
:100BCC0081B0CDF800E081B20348FFF7E5FEDDF817
:0C0BDC0000E001B0704700BF00100040B6
:1009A40081B0ADF800100146BDF8000001F20A0262
:1009B400128802F0010292B202B1F7E701F20E02CC
:0609C400108001B0704735
:100BB00081B0CDF800E081B20348FFF7F3FEDDF825
:0C0BC00000E001B0704700BF00140040CE
:100B940081B0CDF800E081B20348FFF701FFDDF832
:0C0BA40000E001B0704700BF00180040E6
:100C480081B0CDF800E081B20348FFF7A7FEDDF8D8
:0C0C580000E001B0704700BF001C00402D
:101DE40081B0CDF800E00A48FFF792FE0120FFF72A
:101DF40099FE0120FFF780FE4FF40040FFF7ECFE50
:101E0400FFF79CFEFFF7D2FDDDF800E001B070475C
:041E14001423000093
:101B140081B0CDF800E0FFF7D3FADDF800E001B0C2
:021B2400704708
:1010C40000F208010A6804490A6000F218010A687B
:1010D40002490A60704700BFBC000020C000002025
:101B280081B0CDF800E0034C2468A047DDF800E060
:081B380001B07047BC00002061
:0C10FC0001490870704700BF608809427D
:0C10F00001490870704700BF5888094291
:0C10E40001490870704700BF40880942B5
:0C18B40001490870704700BF54800942D1
:0C19380001490870704700BF5C80094244
:0C192C0001490870704700BF5880094254
:0C19200001490870704700BF7C8009423C
:0C19440001490870704700BF7080094224
:0C195C0001490870704700BF4884094230
:0C18E40001490870704700BF4C840942A5
:0C18C00001490870704700BF748809429D
:0C18CC0001490870704700BF7088094295
:0C19080001490870704700BF6C84094260
:0C19140001490870704700BF7C88094240
:0C18FC0001490870704700BF488809428D
:0C18F00001490870704700BF5480094295
:0C18D80001490870704700BF5C800942A5
:0C19500001490870704700BF5880094230
:0C10500001490870704700BF7880094219
:0C0EC00001490870704700BF78880942A3
:0C0F080001490870704700BF6880094272
:0C0EFC0001490870704700BF6C8009427B
:0C0EE40001490870704700BF7488094283
:0C0EF00001490870704700BF708809427B
:0C0ECC0001490870704700BF44880942CB
:0C0ED80001490870704700BF7C8409428B
:0C0F140001490870704700BF7884094252
:0C0F200001490870704700BF549009425E
:0C0E840001490870704700BF58900942F7
:0C0E780001490870704700BF5C900942FF
:0C0EA80001490870704700BF548C0942DB
:0C0EB40001490870704700BF60800942CF
:0C0E900001490870704700BF68800942EB
:0C0E9C0001490870704700BF6C800942DB
:0C0F2C0001490870704700BF5C84094256
:0C10140001490870704700BF5884094271
:0C10080001490870704700BF4C9009427D
:0C0FFC0001490870704700BF748409426E
:0C10200001490870704700BF708409424D
:0C10440001490870704700BF5490094239
:0C10380001490870704700BF5890094241
:0C102C0001490870704700BF5C90094249
:0C0FF00001490870704700BF748009427E
:0C0F500001490870704700BF648009422E
:0C0F440001490870704700BF6880094236
:0C0F380001490870704700BF6C8009423E
:0C0F5C0001490870704700BF5C84094226
:0C0FE40001490870704700BF58840942A2
:101AFC0081B0CDF800E0034C2468A047DDF800E08D
:081B0C0001B07047C000002089
:101BDC0081B0CDF800E08146C9F3000121B140F29B
:101BEC0020015F48FFF7E6F9C9F3400121B140F24B
:101BFC0010015B48FFF7DEF9C9F3800121B140F217
:101C0C0008015748FFF7D6F9C9F3C00121B140F2DA
:101C1C0004015348FFF7CEF9C9F3001121B140F28A
:101C2C0002014F48FFF7C6F9C9F3401121B140F248
:101C3C0001014B48FFF7BEF9C9F3801121B148F2FD
:101C4C0000014848FFF7B6F9C9F3C01121B144F2BD
:101C5C0000014448FFF7AEF9C9F3002121B142F26B
:101C6C0000014048FFF7A6F9C9F3402121B141F228
:101C7C0000013C48FFF79EF9C9F3802121B140F6E1
:101C8C0000013848FFF796F9C9F3C02121B140F2A1
:101C9C0000413448FFF78EF9C9F3003121B140F20D
:101CAC0000213048FFF786F9C9F3403121B140F2E9
:101CBC0000112C48FFF77EF9C9F3803121B140F2B5
:101CCC0000212748FFF776F9C9F3C03121B140F262
:101CDC0000112348FFF76EF9C9F3004121B140F21E
:101CEC0002012148FFF766F9C9F3404121B140F2E6
:101CFC0001011D48FFF75EF9C9F3804121B148F29B
:101D0C0000011A48FFF756F9C9F3C04121B144F25A
:101D1C0000011648FFF74EF9C9F3005121B142F208
:101D2C0000011248FFF746F9C9F3405121B141F2C5
:101D3C0000010E48FFF73EF9C9F3805121B140F67E
:101D4C0000010A48FFF736F9C9F3C05121B140F23E
:101D5C0000410648FFF72EF9DDF800E001B07047AE
:101D6C00404C0040204C0040804C0040604C0040F7
:100FC00081B0CDF800E040F21F0212B204B441F249
:100FD00000130022FFF7ACFB01B0DDF800E001B028
:020FE000704758
:101B400081B00C490C4801600C48006840F010015D
:101B50000A480160094801680948014007480160D6
:101B6000084801686FF07C6001400648016001B0E0
:101B7000704700BF690F00009C000020002001405A
:081B8000FFFF073E04200140B5
:1019B00044F67D77C0F2120700BF00BF7F1EFDD145
:0819C00000BF00BF00BF70472B
:101E200081B0CDF800E00F20FFF79EFD0E4908605D
:101E3000084600680D49FFF7FBFD0D480121FFF73B
:101E400025FE02210948FFF721FE48F67D57C0F222
:101E50005B0700BF7F1EFDD100BF00BF00BF00BFFA
:101E6000DDF800E001B070473400002038000020A9
:041E7000000000204E
:1019680081B0CDF800E01FFA80FA012109B201FA2E
:101978000AF109B288B200F02DF900F0DDF81FFA7B
:101988008AF0FFF7EDFA05490A686FF010010A407E
:1019980002490A60DDF800E001B07047002001400C
:100F680081B0CDF800E087B20021B8B2FFF7E2FE09
:100F78000023BAB24FF00001B8B2FFF74BFF40F2BE
:100F88008000FFF727FFFFF709FFFFF7C7FDB8B29B
:100F98000849096801B1FBE7C0B2FFF7BBFB00F2E3
:100FA800800109888AB2FFF7CFFD90B2DDF800E032
:080FB80001B070470000244263
:100D3C0081B0CDF800E0CCB20146202901D10120D0
:100D4C0021E0FFF7DBFC08B102201CE0104A13681D
:100D5C006FF4F81213400A0413430D4A13603CB9A4
:100D6C000C4A13686FF4C02213400A4A136009E05E
:100D7C00084A13686FF4C02203EA020242F480238B
:100D8C00044A13600020DDF800E001B0704700BF9A
:080D9C00042001400020014089
:1007080081B00348006800F48030C0B201B070477F
:04071800002001407C
:100E1C0081B0CDF800E0DDB20B4601461646202924
:100E2C0001D301201CE0FFF769FC08B1022017E098
:100E3C00C8B2FFF76DFC55B105680B4C254046EA6E
:100E4C00030444F4005445EA0404046007E0056814
:100E5C00054C254046EA030445EA040404600020DE
:0C0E6C00DDF800E001B07047E0D0FFFFAF
:10071C0081B0820002498918084601B0704700BFB9
:04072C001820014050
:100DDC0081B0CDF800E00346FFF790FC08B101208C
:100DEC000EE0012252B208490A6023B9002252B225
:100DFC0006490A6003E0012252B204490A6000204D
:100E0C00DDF800E001B07047680024421C00244269
:100DA40081B0CDF800E00A48006808B901200BE0E2
:100DB400FFF7A8FC08B1022006E00648006840F0EE
:100DC4000201044801600020DDF800E001B0704732
:080DD400100024420020014040
:100B240081B00848006808B9012009E00648006857
:100B340008B1022004E0012149B203480160002009
:0C0B440001B07047100024420000244261
:100B500081B0CDF800E00D48006808B9012011E02F
:100B6000FFF7D2FD08B102200CE0094801686FF0E0
:100B7000020001400648016000BF00BF00BF00BF87
:100B800000BF0020DDF800E001B0704710002442F3
:040B90000020014000
:101A300082B0ADF8040001AD6A1C12781309DBB264
:101A4000114AD21812780A704C1C6A1C127802F0E3
:101A50000F03DBB20C4AD218127822708C1C2A7841
:101A60001309DBB2084AD21812782270CC1C2A78EB
:101A700002F00F03DBB2044AD218127822700B1D59
:0C1A800000221A7002B070472B240000F6
:101F3C0083B0CDF800E0374B374C384D384E394F25
:101F4C00394845F680213948018004F007000528FE
:101F5C0004D004F07000502800D00BE0012252B2E3
:101F6C0033480280002149B2324801803248028055
:101F7C0032480180802132480160019502961E464C
:101F8C0025463A46029B019C2E48006800F480705E
:101F9C0000B1F9E72C492D480160019511463246F4
:101FAC001D46019B2748006800F4807000B1F9E7DA
:101FBC0027480160274801602749284801602848C4
:101FCC00026028480360200D00F0070028B944F097
:101FDC000301254801602A4610E044F4803040F0AB
:101FEC000301214801602A462048006830B1FFF700
:101FFC00C9FE012149B21E480160F5E700211748CE
:10200C00016042F4B44109480180DDF800E003B0FE
:10201C00704700BF00000500330000000300010002
:10202C00840000000010000080BB00000C48004041
:10203C004CA509428CA5094248A5094288A509422C
:10204C00143004E00400014001005A690000014012
:10205C0010100140141001405A69000000040140A6
:10206C0004040140080401400C040140048920428E
:04207C00048A204270
:101D900040F20907C0F2000700BF00BF7F1EFDD15F
:081DA00000BF00BF00BF704747
:101F040081B002490248016001B0704780BB000003
:041F1400A800002001
:081ED00081B0FEE701B070478C
:101ED80081B04EF68850CEF20000016841F47001DE
:101EE800016000BF00BF00BF00BFF1EE100A40F460
:0A1EF8004000E1EE100A01B070474F
:10243C0000B5DFF824B0DFF824A0DFF824C0FFF7E4
:10244C0097FCDFF820B0DFF820A0DFF820C0FFF702
:10245C008FFC00BD704700BF00000020270000204B
:10246C00042400002800002030000020A8190000DF
:1024D80000B5DFF810B0DFF810A0FFF761FC00BD11
:0C24E800704700BF00000020C40000206E
:0419A8001027000004
:0419AC0000366E0192
:10208000004C00400400050500000000004C00402A
:10209000080005050000000000000000000000002E
:1020A0000000000000000000000000000000000030
:1020B0000000000000000000000000000000000020
:1020C0000000000000000000000000000000000010
:1020D0000000000000000000000000000000000000
:1020E00000000000000000000000000000000000F0
:1020F00000000000000000000000000000000000E0
:1021000000000000000000000000000000000000CF
:1021100000000000000000000000000000000000BF
:1021200000000000000000000000000000000000AF
:10213000000000000000000000000000000000009F
:10214000000000000000000000000000000000008F
:0C21500000000000000000000200000081
:10215C00204C00400400050500000000204C00400D
:10216C000800050500000000000000000000000051
:10217C000000000000000000000000000000000053
:10218C000000000000000000000000000000000043
:10219C000000000000000000000000000000000033
:1021AC000000000000000000000000000000000023
:1021BC000000000000000000000000000000000013
:1021CC000000000000000000000000000000000003
:1021DC0000000000000000000000000000000000F3
:1021EC0000000000000000000000000000000000E3
:1021FC0000000000000000000000000000000000D3
:10220C0000000000000000000000000000000000C2
:10221C0000000000000000000000000000000000B2
:0C222C00000000000000000002000000A4
:10223800004C00400004050500000000004C004070
:102248000008050500000000000000000000000074
:102258000000000000000000000000000000000076
:102268000000000000000000000000000000000066
:102278000000000000000000000000000000000056
:102288000000000000000000000000000000000046
:102298000000000000000000000000000000000036
:1022A8000000000000000000000000000000000026
:1022B8000000000000000000000000000000000016
:1022C8000000000000000000000000000000000006
:1022D80000000000000000000000000000000000F6
:1022E80000000000000000000000000000000000E6
:1022F80000000000000000000000000000000000D6
:0C230800000000000000000002000000C7
:10231400FD100000F1100000E5100000B5180000E9
:10232400391900002D190000211900004519000079
:102334005D190000E5180000C1180000CD18000068
:10234400FFFFFFFFFFFFFFFFFFFFFFFFFFFFFFFF99
:10235400FFFFFFFFFFFFFFFFFFFFFFFFFFFFFFFF89
:10236400FFFFFFFFFFFFFFFFFFFFFFFFFFFFFFFF79
:102374000000010002000400080010002000110009
:10238400210022004400250049004A005200920026
:1023940053005500AA006B00AD00B500B600D6008E
:1023A400B700BB00DD00ED00EE00BF00DF00EF0072
:0823B400F700FB00FD00FE0034
:1023BC0000001102CB024303E903E40496058606F0
:1023CC006308B008C709B80B070DF70DA90EA30FCA
:1023DC00BE101A118A13531673176E1820190B1A84
:1023EC00591BEB1B4F1DB51E441F8D2010217C214A
:0823FC002F222C23D2234824D8
:1024040020536C696465722076616C7565203A208E
:102414003078002D2D2D2053797374656D20496E0D
:102424006974202D2D2D0030313233343536373850
:0724340039414243444546D3
:00000001FF
