:10000000FCFF0220351B0000ED1A0000ED1A000075
:10001000ED1A0000ED1A0000ED1A0000ED1A0000C4
:10002000ED1A0000ED1A0000ED1A0000ED1A0000B4
:10003000ED1A0000ED1A0000ED1A0000ED1A0000A4
:10004000ED1A0000ED1A0000ED1A0000ED1A000094
:10005000ED1A0000ED1A0000ED1A0000ED1A000084
:10006000ED1A0000ED1A0000ED1A0000ED1A000074
:10007000ED1A0000ED1A0000ED1A0000ED1A000064
:10008000ED1A0000ED1A0000ED1A0000ED1A000054
:10009000ED1A0000ED1A0000ED1A0000ED1A000044
:1000A000ED1A0000ED1A0000ED1A0000ED1A000034
:1000B000ED1A0000ED1A0000ED1A0000ED1A000024
:1000C000ED1A0000ED1A0000ED1A0000ED1A000014
:1000D000ED1A0000ED1A0000ED1A0000ED1A000004
:1000E000ED1A0000ED1A0000ED1A0000ED1A0000F4
:1000F000ED1A0000ED1A0000ED1A0000ED1A0000E4
:10010000ED1A0000ED1A0000ED1A0000ED1A0000D3
:10011000ED1A0000ED1A0000ED1A0000ED1A0000C3
:10012000ED1A0000ED1A0000ED1A0000ED1A0000B3
:10013000ED1A0000ED1A0000ED1A0000ED1A0000A3
:10014000ED1A0000ED1A0000ED1A0000ED1A000093
:10015000ED1A0000ED1A0000ED1A0000ED1A000083
:10016000ED1A0000ED1A0000ED1A0000ED1A000073
:10017000ED1A0000ED1A0000ED1A0000ED1A000063
:10018000ED1A0000ED1A0000ED1A0000ED1A000053
:08019000ED1A0000ED1A000059
:101B340000F010F8FFF7DCFF00F0E0FBFFF7EEFF2A
:101B440000F08EFBFFF7A8FFFFF78CFFFFF760FFA5
:041B5400FCE7FEE7C5
:101A000081B01CF8019B0BF8019BBBEB0A0FF8D1CE
:041A100001B070476A
:1019C40081B04FF000094FF0000CBDEB0A0F04DCAE
:1019D400BDEB0B0F01DBD446EA464BF8049BBBEB93
:1019E4000A0FFAD1BCEB0A0F05DDE246D9F800B0C4
:0A19F4000BF1040BF1E701B070479E
:101A9C0081B0CDF800E0002206210020FFF7E6FD22
:101AAC00002202210020FFF7E1FD42F280511020BC
:101ABC00FFF74CFE09480221FFF746FF40F6FE07F0
:101ACC00C0F23D0700BF00BF7F1EFDD100BF00BFAD
:101ADC0000BFDDF800E001B0704700BF0000FF1F41
:1016780081B0CDF800E05FFA81F85FFA82F916E0F0
:101688005FFA89F15FFA88F0FFF77EFE16E05FFAED
:1016980089F15FFA88F0FFF793FD0FE05FFA89F1AF
:1016A8005FFA88F0FFF7A8FC08E0012006E00028B0
:1016B800E6D00128EBD00228F0D0F6E7DDF800E00C
:0416C80001B07047B6
:1013900081B0CDF800E0A9E0012905D14FF00401AA
:1013A0006548FFF7FFFC04E04FF004016348FFF7D6
:1013B000ABFCBBE0012905D14FF400615E48FFF7AB
:1013C000F1FC04E04FF400615C48FFF79DFCADE0E8
:1013D000012905D14FF010015948FFF7E3FC04E063
:1013E0004FF010015748FFF78FFC9FE0012905D10E
:1013F0004FF020015248FFF7D5FC04E04FF02001E8
:101400005048FFF781FC91E0012905D14FF08001A0
:101410004B48FFF7C7FC04E04FF080014948FFF755
:1014200073FC83E0012905D14FF040014448FFF7E8
:10143000B9FC04E04FF040014248FFF765FC75E05D
:10144000012905D14FF480613F48FFF7ABFC04E070
:101450004FF480613D48FFF757FC67E0012905D153
:101460004FF400513448FFF79DFC04E04FF4005165
:101470003248FFF749FC59E0012905D14FF004013A
:101480003348FFF78FFC04E04FF004013148FFF7C9
:101490003BFC4BE0012905D14FF008012C48FFF738
:1014A00081FC04E04FF008012A48FFF72DFC3DE0E5
:1014B000012905D14FF480712548FFF773FC04E042
:1014C0004FF480712348FFF71FFC2FE0012905D15D
:1014D0004FF400711E48FFF765FC04E04FF4007103
:1014E0001C48FFF711FC21E0012020E000283FF418
:1014F00053AF01283FF45EAF02283FF469AF0328E1
:101500003FF474AF04283FF47FAF05283FF48AAF5F
:1015100006283FF495AF0728A0D00828ACD00928AA
:10152000B8D00A28C4D00B28D0D0DDE70020DDF8E1
:1015300000E001B0704700BF50F00F4040F00F4096
:1015400090F00F4080F00F4010F00F4000F00F407F
:08155000D0F00F40C0F00F4085
:100DA40081B0CDF800E0034AFFF7A0FDDDF800E0D4
:080DB40001B0704704010200C8
:1008F00081B0CDF800E0FFF71BFFDDF800E001B0AC
:0209000070473E
:1007300083B0CDF800E006460C4615463046FFF77C
:10074000ADFE40F2FF1306EA0300800900262246B0
:100750002946202E39D24FF0010303FA06F402EAAB
:1007600004031F46A3422ED104031A4B1C19B300E5
:10077000E51801952C68184B04EA03032B60174B0E
:1007800001EA0304019B1B6843EA0404019B1C600B
:1007900001F48033B3F5803F15D08401104B1B1951
:1007A0001433029301F400333BB1FC43029B1B68FA
:1007B00003EA0404029B1C6005E0029B1B6843EAF9
:1007C0000704029B1C60761CC3E7DDF800E003B061
:1007D000704700BF009004400000FFFFFFFF0000D3
:0407E00000F00F40D6
:10049C0081B040F2FF1100EA01018909084600F21F
:1004AC0009024FF0010101FA02F20449096841EA1C
:1004BC00020202490A6001B0704700BF3880044054
:100D080081B0CDF800E0034AFFF7EEFDDDF800E022
:080D180001B070470401040062
:1011C80081B0CDF800E0A9E0012905D14FF0080170
:1011D8006548FFF7E3FD04E04FF008016348FFF7B7
:1011E8008FFDBBE0012905D14FF400215E48FFF7D0
:1011F800D5FD04E04FF400215C48FFF781FDADE028
:10120800012905D14FF008015948FFF7C7FD04E04F
:101218004FF008015748FFF773FD9FE0012905D1FA
:101228004FF020015248FFF7B9FD04E04FF02001CC
:101238005048FFF765FD91E0012905D14FF0800185
:101248004B48FFF7ABFD04E04FF080014948FFF73A
:1012580057FD83E0012905D14FF040014448FFF7CD
:101268009DFD04E04FF040014248FFF749FD75E05D
:10127800012905D14FF400613F48FFF78FFD04E0D5
:101288004FF400613D48FFF73BFD67E0012905D1B8
:101298004FF480713448FFF781FD04E04FF480710A
:1012A8003248FFF72DFD59E0012905D14FF480316F
:1012B8002F48FFF773FD04E04FF480312D48FFF706
:1012C8001FFD4BE0012905D14FF400312848FFF7F5
:1012D80065FD04E04FF400312648FFF711FD3DE0BD
:1012E800012905D14FF480712548FFF757FD04E027
:1012F8004FF480712348FFF703FD2FE0012905D142
:101308004FF400711E48FFF749FD04E04FF40071E7
:101318001C48FFF7F5FC21E0012020E000283FF4FD
:1013280053AF01283FF45EAF02283FF469AF0328AA
:101338003FF474AF04283FF47FAF05283FF48AAF29
:1013480006283FF495AF0728A0D00828ACD0092874
:10135800B8D00A28C4D00B28D0D0DDE70020DDF8AB
:1013680000E001B0704700BF50F00F4040F00F4060
:1013780090F00F4080F00F4010F00F4000F00F4049
:08138800D0F00F40C0F00F404F
:1010000081B0CDF800E0A9E0012905D14FF0400101
:101010006548FFF7C7FE04E04FF040016348FFF763
:1010200073FEBBE0012905D14FF480615E48FFF7F4
:10103000B9FE04E04FF480615C48FFF765FEADE067
:10104000012905D14FF004015948FFF7ABFE04E038
:101050004FF004015748FFF757FE9FE0012905D1E3
:101060004FF020015248FFF79DFE04E04FF02001B1
:101070005048FFF749FE91E0012905D14FF080016A
:101080004B48FFF78FFE04E04FF080014948FFF71F
:101090003BFE83E0012905D14FF040014448FFF7B2
:1010A00081FE04E04FF040014248FFF72DFE75E05D
:1010B000012905D14FF010013F48FFF773FE04E00E
:1010C0004FF010013D48FFF71FFE67E0012905D1F1
:1010D0004FF080013448FFF765FE04E04FF08001D7
:1010E0003248FFF711FE59E0012905D14FF4803154
:1010F0002F48FFF757FE04E04FF480312D48FFF7EB
:1011000003FE4BE0012905D14FF400312848FFF7D9
:1011100049FE04E04FF400312648FFF7F5FD3DE0BD
:10112000012905D14FF480712548FFF73BFE04E00B
:101130004FF480712348FFF7E7FD2FE0012905D127
:101140004FF400711E48FFF72DFE04E04FF40071CC
:101150001C48FFF7D9FD21E0012020E000283FF4E2
:1011600053AF01283FF45EAF02283FF469AF032874
:101170003FF474AF04283FF47FAF05283FF48AAFF3
:1011800006283FF495AF0728A0D00828ACD009283E
:10119000B8D00A28C4D00B28D0D0DDE70020DDF875
:1011A00000E001B0704700BF50F00F4040F00F402A
:1011B00090F00F4080F00F4010F00F4000F00F4013
:0811C000D0F00F40C0F00F4019
:1017580081B0CDF800E011E00846FFF71DFF16E064
:101768000846FFF707FF12E00846FFF7F1FE0EE014
:101778000846FFF71DFC0AE0012008E00028EBD02E
:101788000128EDD00228EFD01028F1D0F4E7DDF8D9
:0617980000E001B0704703
:1015A00081B0CDF800E0FFF7DFFB044A04490A6090
:1015B0000020DDF800E001B0704700BFB10C000072
:0415C0009400FF1F75
:100D680081B0CDF800E003460A48FFF7D1FD0A4AF2
:100D780040F2000104B402B440F20002194640F205
:100D880000030448FFF7F4FE02B0DDF800E001B00C
:0C0D9800704700BF00C00640F0200000C3
:1009180081B0304988420CD12F4A30490A60304AA8
:1009280030490A60304A31490A60314A31490A601F
:100938004EE0314988420CD1304A28490A60304A91
:1009480028490A602F4A29490A602F4A29490A601A
:100958003EE02E4988420CD12D4A20490A602D4A92
:1009680020490A602C4A21490A602C4A21490A6018
:100978002EE02B4988420CD12A4A18490A602A4A93
:1009880018490A60294A19490A60294A19490A6016
:100998001EE0284988420CD1274A10490A60274A94
:1009A80010490A60264A11490A60264A11490A6014
:1009B8000EE0254988420BD1244A08490A60244A96
:1009C80008490A60234A09490A60234A09490A6012
:1009D80001B0704700A00640D90B0000A800FF1F17
:1009E800FFFFFFFFAC00FF1FFFFFFFFFB000FF1F6F
:1009F800FFFFFFFFB400FF1F00B00640950C00008A
:100A0800FFFFFFFFFFFFFFFFFFFFFFFF00C00640E4
:100A1800B10C0000FFFFFFFFFFFFFFFFFFFFFFFF1D
:100A280000D00640790C0000FFFFFFFFFFFFFFFF2B
:100A3800FFFFFFFF00A00E40410C0000FFFFFFFF7B
:100A4800FFFFFFFFFFFFFFFF00B00E405D0C00003F
:0C0A5800FFFFFFFFFFFFFFFFFFFFFFFF9E
:100B780085B0CDF800E001900291ADF80C20ADF8F9
:100B88001030BDF81440ADF814400698FFF7E2FCA9
:100B98000198FFF715FD02990198FFF75BFDBDF875
:100BA8000C100198FFF7FCFCBDF810100198FFF736
:100BB800B5FCBDF814100198FFF710FE0198FFF777
:100BC80013FE0198FFF780FDDDF800E005B07047DF
:10055C0081B0CDF800E040F2000C83464FEA8C01EC
:10056C000BEB01010968B1F1FF3F12D00BF1340123
:10057C004FEA8C03C91809680A460BEB030109689A
:10058C0008461146FFF79CFF0CF1010C1FFA8CFC7E
:0A059C00E4E7DDF800E001B070476D
:1004CC0082B0CDF800E080464FEA581202F00702E5
:1004DC00914608F01F04A24693010D4AD3184FF021
:1004EC000102A240019218460A46019900F0FAF95D
:1004FC004FEA0933074AD3184FEA8A029C1808F4CA
:10050C00E06322681A432260DDF800E002B0704715
:08051C0000F00F4000900440C4
:1005C80081B01849884204D1012252B216490A6002
:1005D80026E01649884204D1012252B214490A6021
:1005E8001EE01449884204D1012252B212490A601D
:1005F80016E01249884204D1012252B210490A6019
:100608000EE01049884204D1012252B20E490A6014
:1006180006E00E49884203D1012252B20C490A6011
:1006280001B0704700A00640A806904200B00640FE
:10063800AC06904200C00640B006904200D006408A
:10064800B406904200A00E402805904200B00E402B
:040658002C0590429B
:10065C0085B0CDF800E08046894601AA1046FFF728
:10066C00D7FE164A904503D0154A904500D001E0BC
:10067C00019800E002984FEA0912B0FBF2F291B235
:10068C0092B2130A9BB298F800201A4388F8002003
:10069C0008F10103CAB21A7043014FEA0912B3FB05
:1006AC00F2F34A0192B29A1AD0B208F10A031A78FC
:1006BC0002431A70DDF800E005B0704700A0064058
:0406CC0000B0064034
:10041C0081B0CDF800E00446FFF7F4FF40F2E8317C
:10042C0000FB01F3194909680A0F1849096801F022
:10043C007061090EC8B21549096801F47001090D03
:10044C00CDB21249096801F47021090CCEB2D1B2B7
:10045C00491C09B259430F462360221D411C09B2A5
:10046C00B7FBF1F1116004F20802691C09B2B7FB89
:10047C00F1F1116004F20C02711C09B2B7FBF1F13D
:10048C001160DDF800E001B0704700BF448004400B
:0C04100001480068704700BFA400FF1FF7
:1005A80081B0841C23784FF6EF7212B203EA02027C
:1005B8002270841C0B0122781A43227001B0704704
:1005240081B001F0020262B1841C01F0020322785E
:100534001A432270841C01F0010322781A432270AA
:1005440007E0841C23784FF6FD7212B203EA02021C
:06055400227001B07047A7
:0C07E40081B002780A43027001B0704737
:1007F00081B0C21C117841F00401117001B0704742
:1006D00081B0C21C117841F00801117001B070475F
:10157C0081B0CDF800E0FFF733FC044A04490A605F
:10158C000020DDF800E001B0704700BF790C0000CE
:04159C009400FF1F99
:100DEC0081B0CDF800E003460A48FFF78FFD0A4AB0
:100DFC0040F2000104B402B440F20002194640F281
:100E0C0000030448FFF7B2FE02B0DDF800E001B0C9
:0C0E1C00704700BF00D006405C210000C1
:1015580081B0CDF800E0FFF745FC044A04490A6071
:101568000020DDF800E001B0704700BF790C0000F2
:041578009400FF1FBD
:100FB80081B0CDF800E0FFF785FE044A04490A60D5
:100FC8000020DDF800E001B0704700BFD90B000039
:040FD8009400FF1F63
:100CCC0081B0CDF800E003460A48FFF71FFE0A4A40
:100CDC0040F2000104B402B440F20002194640F2A2
:100CEC0000030448FFF742FF02B0DDF800E001B05A
:0C0CFC00704700BF00A0064084200000EC
:1019540083B0CDF800E0024610460D228DF8082031
:101964000A228DF809201FE0FFF714FB23E0027818
:101974002AB10190FFF70EFB0198401CF7E71AE02B
:1019840002782AB10190FFF705FB0198401CF7E7A4
:1019940002AA1046FFF7FEFA0DF109021046FFF7FE
:1019A400F9FA08E0062007E00029DDD00129DED09D
:1019B4000229E5D0F6E70020DDF800E003B0704727
:100F980081B0CDF800E00178CCB2A0B2034C24684F
:100FA800A0470020DDF800E001B070479400FF1F63
:100BD80081B0CDF800E081B20348FFF70DFEDDF8E3
:0C0BE80000E001B0704700BF00A0064014
:1008000081B0ADF800100146BDF800000A1D137854
:10081000C3F3C01202B9F9E7CA1D107001B07047E6
:100C940081B0CDF800E081B20348FFF7AFFDDDF885
:0C0CA40000E001B0704700BF00B0064047
:100CB00081B0CDF800E081B20348FFF7A1FDDDF877
:0C0CC00000E001B0704700BF00C006401B
:100C780081B0CDF800E081B20348FFF7BDFDDDF893
:0C0C880000E001B0704700BF00D0064043
:100C400081B0CDF800E081B20348FFF7D9FDDDF8AF
:0C0C500000E001B0704700BF00A00E40A3
:100C5C0081B0CDF800E081B20348FFF7CBFDDDF8A1
:0C0C6C0000E001B0704700BF00B00E4077
:101A680081B0CDF800E00A48FFF7B6FE0120FFF785
:101A780061FF0120FFF7A4FEFFF78EFE4FF48050B0
:101A8800FFF7B4FEFFF7E8FDDDF800E001B07047AE
:041A9800C821000061
:1017E00081B0CDF800E0FFF7C7FBDDF800E001B005
:0217F000704740
:100F780000F208010A6804490A6000F218010A68C8
:100F880002490A60704700BFBC00FF1FB800FF1F7E
:10193C0081B0CDF800E0034C2468A047DDF800E04E
:08194C0001B07047BC00FF1F51
:0C0FF40001490860704700BF0808FE4378
:0C0FE80001490860704700BF2C08FE4360
:0C0FDC0001490860704700BF1010FE4380
:0C15C40001490860704700BF1410FE438E
:0C16240001490860704700BF1C10FE4325
:0C16300001490860704700BF1810FE431D
:0C163C0001490860704700BF2800FE4311
:0C16540001490860704700BF3408FE43E5
:0C15D00001490860704700BF0818FE4386
:0C15F40001490860704700BF0C18FE435E
:0C16180001490860704700BF2018FE4325
:0C160C0001490860704700BF2418FE432D
:0C16000001490860704700BF0C08FE4361
:0C15DC0001490860704700BF4C08FE4346
:0C15E80001490860704700BF0C10FE4372
:0C16480001490860704700BF1410FE4309
:0C0E7C0001490860704700BF1C10FE43D5
:0C0E700001490860704700BF1810FE43E5
:0C0E880001490860704700BF2C00FE43C9
:0C0EA00001490860704700BF2008FE43B5
:0C0E940001490860704700BF4010FE4399
:0C0E640001490860704700BF4410FE43C5
:0C0E340001490860704700BF2018FE4311
:0C0E280001490860704700BF2418FE4319
:0C0E580001490860704700BF1808FE4305
:0C0E4C0001490860704700BF2808FE4301
:0C0E400001490860704700BF0810FE4325
:0C0EAC0001490860704700BF1410FE43AD
:0C0F480001490860704700BF1C10FE4308
:0C0F3C0001490860704700BF1810FE4318
:0C0F540001490860704700BF1000FE4318
:0C0F6C0001490860704700BF1C08FE43EC
:0C0F600001490860704700BF4010FE43CC
:0C0F300001490860704700BF4410FE43F8
:0C0EC40001490860704700BF2018FE4381
:0C0EB80001490860704700BF2418FE4389
:1017C80081B0CDF800E0034C2468A047DDF800E0C4
:0817D80001B07047B800FF1FCB
:1017A00081B0CDF800E000210448FFF79DFB04491B
:1017B00004480160DDF800E001B0704700B003406C
:0817C000150F00002800FF1FB7
:100EE80081B0CDF800E00346CCB20648FFF77EFE9D
:100EF800054A147003491846FFF75CFFDDF800E067
:0C0F080001B070479800FF1FA100FF1F00
:100BF40081B008B901201FE001210170421C0321CA
:100C04001170821C01211170C21C01211170021D7E
:100C140003211170421D01211170821D00211170E8
:100C2400C21D0021117000F208020021117000F2AF
:0C0C34000A0200211170002001B070477E
:100DBC0081B0CDF800E003460C460CB901200AE0E6
:100DCC001846FFF743FD1846FFF724FD2146184649
:0E0DDC00FFF742FE0020DDF800E001B0704796
:1008580081B00849884204D1012252B206490A608F
:1008680006E00649884203D1012252B204490A60CF
:1008780001B0704700B00340EC07904200B00B4055
:040888006C06904228
:1008200081B000F208020021116000F20C020021E8
:10083000116000F218020021116000F21C02002178
:10084000116000F220020021116000F22402002158
:06085000116001B07047C9
:100A640081B000F20802126893B24FF6007213408C
:100A74009BB20A781AB143F080039BB2FFE74A1C89
:100A84001278520192B202F0600292B243EA020476
:100A9400A4B28A1C12781AB144F01004A4B2FFE77D
:100AA400CA1C1278920092B202F00C0292B244EA8A
:100AB40002039BB20A1D127802F00302D2B243EA87
:100AC400020294B200F20C02126893B24FF6F07272
:100AD40013409BB24A1D12781AB143F008039BB22B
:100AE400FFE78A1D12781AB143F004039BB2FFE7B3
:100AF400CA1D127802F00302D2B243EA020295B28E
:100B040000F22002126893B24FF6BC7213409BB2FB
:100B140001F2080212781AB143F040039BB2FFE7D6
:100B240001F20902127802F00302D2B243EA02028D
:100B340096B200F22402126893B24FF6B77203EA37
:100B4400020293B201F20A0212781AB143F00801C8
:100B540089B200E099B200F20802146000F20C02BB
:100B6400156000F22002166000F22402116001B048
:020B74007047C8
:1017F40081B0CDF800E080464849096869B1C8F372
:10180400800149B14FF004014548FFF75FFB4FF0F9
:1018140008014348FFF75AFB7BE0C8F3800121B17C
:101824004FF004013E48FFF751FB3E49096801B1FE
:101834001FE0C8F3001121B14FF004013A48FFF74B
:1018440045FBC8F3401121B14FF002013748FFF7BF
:101854003DFBC8F3801121B14FF020013348FFF75D
:1018640035FBC8F3C01121B14FF040012F48FFF7F9
:101874002DFBC8F3002121B14FF001012C48FFF7E3
:1018840025FBC8F3402121B14FF002012848FFF79E
:101894001DFBC8F3802121B14FF080012548FFF7DB
:1018A40015FBC8F3C02121B14FF480712148FFF723
:1018B4000DFBC8F3003121B14FF004011C48FFF7C0
:1018C40005FBC8F3403121B14FF008011848FFF778
:1018D400FDFAC8F3803121B14FF001011248FFF73E
:1018E400F5FAC8F3C03121B14FF002010E48FFF7F9
:1018F400EDFAC8F3404121B14FF080710848FFF779
:10190400E5FAC8F3804121B14FF000710448FFF7B4
:10191400DDFADDF800E001B0704700BF1400764244
:1019240010F10F409001764290F00F40D0F00F403C
:0819340050F00F4010F00F40CD
:100ED00081B0CDF800E04FF48032FFF709FDDDF876
:060EE00000E001B07047C4
:1016600040F6FE07C0F23D0700BF00BF7F1EFDD160
:0816700000BF00BF00BF70477E
:101A140081B0CDF800E00C20FFF756FE0E490860B7
:101A240080B20E49FFF768FE0D480121FFF790FFD1
:101A340002210A48FFF78CFF42F6FE47C0F2311735
:101A440000BF00BF7F1EFDD100BF00BF00BFDDF897
:101A540000E001B0704700BF2C00FF1F3000FF1FE3
:041A64001400FF1F4C
:1016CC0081B0CDF800E01FFA80F900F063F8012139
:1016DC0009B201FA09F109B208B200F085F81FFA53
:0E16EC0089F0FFF711FCDDF800E001B0704757
:100F140081B0CDF800E0C1B20348FFF7FFFEDDF871
:0C0F240000E001B0704700BF00B00340C7
:100D200082B0CDF800E006468DF8041000228DF860
:100D3000062000228DF8052001AA00213046FFF789
:100D4000A5FD00213046FFF7AFFD00213046FFF73B
:100D5000D9FD87B200213046FFF7B6FDB8B2DDF805
:060D600000E002B0704744
:10088C0081B0CDF800E00AB9012002E0FFF722FFA9
:0A089C000020DDF800E001B0704715
:1006E00081B040F20004531C1B781BB144F040045D
:1006F000A4B2FFE7931C1B781BB144F02005ADB2F8
:1007000000E0A5B2137803F01F03DBB245EA03044F
:0C071000A4B28B00C3181C6001B070473D
:1008A80081B0ADF800100146BDF8000082008A183A
:0E08B8001368C3F3C01202B9F8E701B070472D
:1009040081B0CDF800E0FFF707FF00B2DDF800E0AA
:0409140001B0704777
:10071C0081B000F210038A009A18126890B201B0EE
:02072C00704714
:1008C80082B0CDF800E01F228DF8042000228DF8B8
:1008D800052000228DF8062001AAFFF7D3FFDDF8D6
:0608E80000E002B07047C1
:1016FC0082B0ADF8040001AD6A1C12781309DBB29C
:10170C00114AD21812780A704C1C6A1C127802F01A
:10171C000F03DBB20C4AD218127822708C1C2A7878
:10172C001309DBB2084AD21812782270CC1C2A7822
:10173C0002F00F03DBB2044AD218127822700B1D90
:0C174C0000221A7002B070474F2200000B
:101B580090B072B6974801909748029097480390C2
:101B6800974804909748059097480690974807909B
:101B7800974808909748099097480A9097480B907B
:101B880097480C90974998480D9098480E900D9852
:101B980000F007000F9001F0010050B94CF22050FE
:101BA800934908804DF62810088040F2D2119148D8
:101BB80001809148007800F0010050B18F4800780A
:101BC80000F0080020B18D49087840F0080008703E
:101BD80021E08B48006840F000518948016089483D
:101BE800006800F48070B0B9864801686FF47050DE
:101BF80001EA000040F440718248016081480068B1
:101C080040F480717F4801607E4801686FF400707D
:101C180001407C480160AA217B4801700D9800F0C2
:101C2800100060B9794801786FF06000014077488A
:101C3800017077480078012800D0FAE71CE00D9879
:101C480000F01000C0B10E997248814208D9602195
:101C58006E4801706E480078802800D0FAE70BE0E3
:101C68006A4801786FF06000014068480170684870
:101C78000078012800D0FAE70499674801606748AE
:101C880001686FF440200140029800F440200143AD
:101C980062480160624801686FF44030014003986F
:101CA80000F4403001435E4801600F9830B10F984E
:101CB800012803D00F98022800D061E0019800F0B5
:101CC800800050B9089800F0400028B10B9800F047
:101CD8000300002800D100E015E05248006840F4F5
:101CE80000715048016050480168504801404E4812
:101CF8000160069800F0040028B14D4801684B487F
:101D080001404B4801600A994A48017005994A48C0
:101D18000170059800F0040038B14848007800F0D8
:101D28001000002800D1F8E705E04448007800F0EA
:101D3800100000B1F9E74248007800F0BF01C9B2CD
:101D4800069800F0FD0001433D480170079800F037
:101D5800E0013C48007800F01F0001433948017059
:101D68000199394801700B99384801700F98022879
:101D780005D13348007840F0020131480170B8E0DD
:101D8800019800F0800020B90B9800F0030000B122
:101D980065E02448006840F4007122480160224848
:101DA80001682248014020480160069800F00400BC
:101DB80000F04EB80000000000000C000000010018
:101DC80000001401220000002400000000000000B0
:101DD80002000000460000000000000000000000B3
:101DE800000000000000000007000000C0D401004F
:101DF8000E2005400020054000F0074002D00740B3
:101E08003C80044010D0034000E0074001E0074058
:101E180003E007408038010044800440007004401B
:101E2800048004403880044048900440FFF8FFFED6
:101E38004C900440084006400040064006400640DA
:101E48000140064003400640005006400C40064052
:101E580028B17A4801687A480140784801600A99AF
:101E6800784801707848007800F0BF01C9B2069838
:101E780000F0FD0001437448017001997348017036
:101E88000B99734801700F98072805D1059840F001
:101E980080017048017002E005996E48017006984B
:101EA80000F0040048B10B9800F0030028B96A4814
:101EB800007800F0020000B9F9E7059800F0040086
:101EC80038B16548007800F01000002800D1F8E724
:101ED80005E06148007800F0100000B1F9E70798C4
:101EE80000F0E0015D48007800F01F0001435B4806
:101EF8000170089800F0BF0159480170099800F076
:101F0800BF0158480170089800F0400028B15448B3
:101F1800007840F04001524801700F98052806D11A
:101F28004948007840F00201474801701BE00F98CB
:101F3800062803D00F98072800D014E049480078F5
:101F480040F04001474801704348007800F04000E5
:101F580000B9F9E70F98072805D13E48007800F046
:101F68003F013C4801700F9818B10F98032800D022
:101F78002CE03948007800F00C0000B1F9E73A4845
:101F8800006840F00101384801604FF0000137480F
:101F980001604FF08001364801604FF00501354877
:101FA80001604FF00101324801603148006800F0DB
:101FB800800000B9F9E700212D4801602A4801682E
:101FC8006FF001000140284801602AE00F980128BD
:101FD80003D00F98022800D007E01F48007800F0CF
:101FE8000C00042800D0F8E71BE00F98042806D05E
:101FF8000F98062803D00F98052800D007E0164848
:10200800007800F00C00082800D0F8E709E00F98E5
:10201800072806D11048007800F00C000C2800D0E2
:10202800F8E7154801686FF00F0001400C9800F0C0
:102038000F0001431048016010B070474C900440F5
:10204800FFF8FFFE084006400140064000500640E9
:102058000C4006400040064006400640034006404B
:10206800044006400540064038800440080004400B
:0C207800000004400400044048800440C4
:101B200081B002490248016001B07047C0D4010091
:041B3000A400FF1FEF
:081AEC0081B0FEE701B0704774
:101AF40081B072B60849086840F47000086000BFFD
:101B040000BF00BF00BFF1EE100A40F44000E1EE58
:0C1B1400100A62B601B0704788ED00E0D6
:1022640000B5DFF824B0DFF824A0DFF824C0FFF7BE
:10227400C5FBDFF820B0DFF820A0DFF820C0FFF7AF
:10228400BDFB00BD704700BF0000FF1F2700FF1FFC
:10229400282200002800FF1F2C00FF1F60220000DE
:1023000000B5DFF810B0DFF810A0FFF75BFB00BDF1
:0C231000704700BF0000FF1FC000FF1F4F
:100400000000000000000000FFFFFFFF02FDFFFFF3
:102084003103000030030000FFFFFFFF00000000E9
:10209400000000000000000000000000000000003C
:1020A400000000000000000000000000000000002C
:1020B400000000000000080000000800FFFFFFFF10
:1020C400000000000000000000000000000000000C
:1020D40000000000000000000000000000000000FC
:0C20E400000000000000000000000000F0
:1020F0006303000062030000FFFFFFFF0000000019
:1021000000000000000000000000000000000000CF
:1021100000000000000000000000000000000000BF
:10212000000000000000080000000800FFFFFFFFA3
:10213000000000000000000000000000000000009F
:10214000000000000000000000000000000000008F
:0C21500000000000000000000000000083
:10215C005103000050030000FFFFFFFF00000000D0
:10216C000000000000000000000000000000000063
:10217C000000000000000000000000000000000053
:10218C00000000000000080000000800FFFFFFFF37
:10219C000000000000000000000000000000000033
:1021AC000000000000000000000000000000000023
:0C21BC0000000000000000000000000017
:1021C800F50F0000E90F0000DD0F0000C515000045
:1021D80025160000311600003D16000055160000B7
:1021E800D1150000F5150000191600000D160000A5
:1021F800FFFFFFFFFFFFFFFFFFFFFFFFFFFFFFFFE7
:10220800FFFFFFFFFFFFFFFFFFFFFFFFFFFFFFFFD6
:10221800FFFFFFFFFFFFFFFFFFFFFFFFFFFFFFFFC6
:102228002D2D2D2053797374656D20496E697420A6
:042238002D2D2D001B
:10223C0020536C696465722076616C7565203A2058
:10224C003078003031323334353637383941424307
:03225C00444546B0
:04226000150F000056
:00000001FF
