:1000000056EF07F00000000000EF00F000000000D5
:0A0010000000000000000000F3D71C
:0E001C000001CCB102D08B9C01D08B8C120065
:0E002A000001CCB102D0899201D0898212006F
:0E0038000001CCB102D08B9801D08B88120051
:0E0046000001CCB102D08B9E01D08B8E120037
:0E0054000001CCB102D08D9601D08D86120035
:0E0062000001CCB102D08B9601D08B8612002B
:0E0070000001CCB102D08A9201D08A82120027
:0E007E000001CCB102D08B9A01D08B8A120007
:10008C000F0121B302D00000FBD7CCC01CFF120023
:0E009C000001CCB102D08B9801D08B881200ED
:0E00AA000001CCB102D08A9001D08A801200F1
:0E00B800ACB202D00000FCD7CCC0ADFF1200ED
:0E00C6000001CCB102D0899801D089881200C7
:0E00D4000001CCB102D08D9201D08D821200BD
:0E00E2000001CCB102D08B9601D08B861200AB
:0E00F0000001CCB102D08B9601D08B8612009D
:0E00FE000001CCB102D08B9C01D08B8C120083
:0E010C000001CCB102D08B9201D08B82120088
:0E011A000001CCB102D08B9A01D08B8A12006A
:0E0128000001CCB102D08B9E01D08B8E120054
:0E0136000001CCB102D08B9601D08B86120056
:0E0144000001CCB102D08F9401D08F84120044
:0E0152000001CCB102D08A9401D08A84120040
:0E0160000001CCB102D08F9001D08F80120030
:0E016E000001CCB102D08B9601D08B8612001E
:0E017C000001CCB102D08D9401D08D84120010
:0E018A000001CCB102D08F9201D08F82120002
:0E0198000001CCB102D0899401D089841200FC
:0E01A6000001CCB102D08B9801D08B881200E2
:0E01B4000001CCB102D08B9801D08B881200D4
:0E01C2000001CCB102D08B9801D08B881200C6
:0E01D0000001CCB102D08B9801D08B881200B8
:0E01DE000001CCB102D0899001D089801200BE
:0E01EC000001CCB102D08D9001D08D801200A8
:0E01FA000001CCB102D08B9001D08B8012009E
:0E0208000001CCB102D08B9A01D08B8A12007B
:0E0216000001CCB102D08B9601D08B86120075
:0E0224000001CCB102D08B9401D08B8412006B
:10023200B80E0001BD6F000EBE6FCC0EBF6F000E78
:10024200C06FFF0E456EFF0E466E000E476E000E2B
:10025200486EFF0E416EFF0E426E000E436E000EA0
:10026200446EFF0E3D6EFF0E3E6E000E3F6E000EA0
:10027200406EAC8A900EAB6E948E949C9EAA03D074
:08028200AECF00F0FBD7120023
:10028A008C0E0001BD6F000EBE6FCC0EBF6F000E4C
:10029A00C06FFF0E456EFF0E466E000E476E000ED3
:1002AA00486EFF0E416EFF0E426E000E436E000E48
:1002BA00446EFF0E3D6EFF0E3E6E000E3F6E000E48
:1002CA00406E0F01218B900E226F98849892A4AAF7
:0A02DA0003D01DCF00F0FBD7120087
:1002E400F250026EF29E0500FF6A0150FE6E00504D
:0802F400FD6E02BEF28E120045
:0A02FC00750E0D6E0D2EFED71200D8
:1003060021D0CF0EAF6EAC9491DF6BD0670EAF6E7F
:10031600AC948CDF66D0CF0EAF6EAC8487DF61D035
:10032600670EAF6EAC8482DF5CD0440EAF6EAC84D9
:100336007DDF57D0220EAF6EAC8478DF52D0060E2A
:10034600006E58D00001000E006ECB1908E1005077
:10035600CA1905E1120EC91902E1C851C00AD1E055
:10036600000E006ECB1908E10050CA1905E1250EF2
:10037600C91902E1C851800AC9E0000E006ECB1906
:1003860008E10050CA1905E14B0EC91902E1C8512E
:10039600000AC1E0000E006ECB1908E10050CA1930
:1003A60005E1960EC91902E1C851000AB9E0000E2E
:1003B600006ECB1908E10050CA1905E1E10EC91912
:1003C60002E1C851000AB1E0CB51000A08E1CA5166
:1003D600010A05E1C951C20A02E1C851000AAAE0B0
:1003E600AED7B80EB16F000EB26FCC0EB36F000E63
:0603F600B46F006A120062
:1003FC0038D00F0120870D0E1F6F040E1E6F218544
:10040C003EDF7ED00F012087060E1F6F820E1E6FFF
:10041C00218535DF75D00F012087030E1F6F400E2D
:10042C001E6F21852CDF6CD00F012087010E1F6FF2
:10043C00A00E1E6F218523DF63D00F012087010ED4
:10044C001F6F150E1E6F21851ADF5AD00F012087E2
:10045C001F6B8A0E1E6F218512DF52D0060E006EA6
:10046C0059D0000E006E0001CB1908E10050CA19DA
:10047C0005E1120EC91902E1C851C00ABAE0000E1A
:10048C00006ECB1908E10050CA1905E1250EC919F7
:10049C0002E1C851800AB6E0000E006ECB1908E1EB
:1004AC000050CA1905E14B0EC91902E1C851000AE6
:1004BC00B2E0000E006ECB1908E10050CA1905E13C
:1004CC00960EC91902E1C851000AAEE0000E006E8A
:1004DC00CB1908E10050CA1905E1E10EC91902E176
:1004EC00C851000AAAE0CB51000A08E1CA51010A1E
:1004FC0005E1C951C20A02E1C851000AA7E0AED712
:10050C0000018C0EB16F000EB26FCC0EB36F000EEB
:06051C00B46F006A12003A
:10052200B3C0E1FFB4C0E2FFC8C0E9FFC9C0EAFF3F
:10053200EECFE6FFB1C000F0B2C001F0D2DE006A39
:020542001200A5
:1005440021D0CF0EAF6EAC9472DE6BD0670EAF6E5F
:10055400AC946DDE66D0CF0EAF6EAC8468DE61D035
:10056400670EAF6EAC8463DE5CD0440EAF6EAC84B9
:100574005EDE57D0220EAF6EAC8459DE52D0060E2A
:10058400006E58D00001000E006ECB1908E1005037
:10059400CA1905E1120EC91902E1C851C00AD1E015
:1005A400000E006ECB1908E10050CA1905E1250EB2
:1005B400C91902E1C851800AC9E0000E006ECB19C6
:1005C40008E10050CA1905E14B0EC91902E1C851EE
:1005D400000AC1E0000E006ECB1908E10050CA19F0
:1005E40005E1960EC91902E1C851000AB9E0000EEE
:1005F400006ECB1908E10050CA1905E1E10EC919D2
:1006040002E1C851000AB1E0CB51000A08E1CA5125
:10061400010A05E1C951C20A02E1C851000AAAE06F
:10062400AED7B80EB16F000EB26FCC0EB36F000E22
:06063400B46F006A120021
:10063A00080E0001C825F66E000EC921F76E000EDD
:10064A00CA21F86E0900F5CFB5F00900F5CFB6F06A
:10065A000900F5CFB7F00900F5CFB8F0180EC82594
:10066A00F66E000EC921F76E000ECA21F86E090057
:10067A00F5CFB9F00900F5CFBAF00900F5CFBBF014
:08068A000900F5CFBCF01200DD
:1006920059D00001C9B102D0929001D092800F01CD
:1006A200259176D00001C9B102D0949001D09480F6
:1006B2006FD00001C9B102D0969001D0968068D067
:1006C2000001C9B102D0949601D0948661D0000194
:1006D200C9B102D0949801D094885AD00001C9B10E
:1006E20002D0949A01D0948A53D00001C9B102D0A9
:1006F200949201D094824CD00001C9B102D093905F
:1007020001D0938045D00001C9B102D0949E01D09E
:10071200948E3ED00001C9B102D0949C01D0948C39
:1007220037D00001C9B102D0949601D0948630D05E
:100732000001C9B102D0949801D0948829D0010E49
:10074200006E28D00001C851000AA3E0C851010A76
:10075200A9E0C851020AADE0C851030AB1E0C8518C
:10076200040AB5E0C851050AB9E0C851060ABDE05D
:10077200C851070AC1E0C851080AC5E0C851090AB0
:10078200C9E0C8510A0ACDE0C8510B0AD1E0D7D757
:06079200000E006E1200D3
:1007980059D00001C9B102D0929201D092820F01C2
:1007A800259376D00001C9B102D0929801D09288E1
:1007B8006FD00001C9B102D0969201D0968268D05C
:1007C8000001C9B102D0949601D0948661D000018D
:1007D800C9B102D0949801D094885AD00001C9B107
:1007E80002D0949A01D0948A53D00001C9B102D0A2
:1007F800949401D094844CD00001C9B102D0939252
:1008080001D0938245D00001C9B102D0949E01D095
:10081800948E3ED00001C9B102D0949C01D0948C32
:1008280037D00001C9B102D0949601D0948630D057
:100838000001C9B102D0949801D0948829D0010E42
:10084800006E28D00001C851000AA3E0C851010A6F
:10085800A9E0C851020AADE0C851030AB1E0C85185
:10086800040AB5E0C851050AB9E0C851060ABDE056
:10087800C851070AC1E0C851080AC5E0C851090AA9
:10088800C9E0C8510A0ACDE0C8510B0AD1E0D7D750
:06089800000E006E1200CC
:10089E0021D0CF0EAF6EAC94C5DC6BD0670EAF6EB1
:1008AE00AC94C0DC66D0CF0EAF6EAC84BBDC61D036
:1008BE00670EAF6EAC84B6DC5CD0440EAF6EAC840B
:1008CE00B1DC57D0220EAF6EAC84ACDC52D0060E2B
:1008DE00006E58D00001000E006ECB1908E10050DA
:1008EE00CA1905E1120EC91902E1C851C00AD1E0B8
:1008FE00000E006ECB1908E10050CA1905E1250E55
:10090E00C91902E1C851800AC9E0000E006ECB1968
:10091E0008E10050CA1905E14B0EC91902E1C85190
:10092E00000AC1E0000E006ECB1908E10050CA1992
:10093E0005E1960EC91902E1C851000AB9E0000E90
:10094E00006ECB1908E10050CA1905E1E10EC91974
:10095E0002E1C851000AB1E0CB51000A08E1CA51C8
:10096E00010A05E1C951C20A02E1C851000AAAE012
:10097E00AED7B80EB16F000EB26FCC0EB36F000EC5
:06098E00B46F006A1200C4
:100994005DD00001C9B102D0929401D092840F01BC
:1009A40025957AD00001C9B102D0969601D09686D9
:1009B40073D00001C9B102D0969401D096846CD052
:1009C4000001C9B102D0949601D0948665D000018B
:1009D400C9B102D0949801D094885ED00001C9B105
:1009E40002D0949A01D0948A57D00001C9B102D0A0
:1009F400989001D0988050D00001C9B102D093944E
:100A040001D0938449D00001C9B102D0989401D097
:100A140098840F01239540D00001C9B102D0989267
:100A240001D098820F01239337D00001C9B102D0BD
:100A3400949601D0948630D00001C9B102D0949824
:100A440001D0948829D0010E006E28D00001C8512D
:100A5400000A9FE0C851010AA5E0C851020AA9E0B2
:100A6400C851030AADE0C851040AB1E0C851050AEF
:100A7400B5E0C851060AB9E0C851070ABDE0C8513B
:100A8400080AC1E0C851090AC7E0C8510A0ACDE002
:0E0A9400C8510B0AD1E0D7D7000E006E120039
:100AA20015D0C2C0C8F0C3C0C9F0F2DD1AD0C2C0AE
:100AB200C8F0C3C0C9F06FDE14D0C2C0C8F0C3C052
:100AC200C9F067DF0ED0010E006E0BD00001C151DC
:100AD200000AE7E0C151010AEAE0C151020AEDE071
:040AE200F2D7120035
:100AE6002CD0C2C0C8F0C3C0C9F0C4C0CAF0C5C0CB
:100AF600CBF025DD30D0C2C0C8F0C3C0C9F0C4C039
:100B0600CAF0C5C0CBF083EC01F025D0C2C0C8F056
:100B1600C3C0C9F0C4C0CAF0C5C0CBF06CDC1BD0E2
:100B2600C2C0C8F0C3C0C9F0C4C0CAF0C5C0CBF0CB
:100B3600B3DE11D0010E006E0ED00001C151000AC5
:100B4600D0E0C151010AD7E0C151020ADFE0C1512C
:080B5600100AE6E0EFD71200DF
:100B5E00BBC0E1FFBCC0E2FFC1C0E6FFB9C000F000
:0A0B6E00BAC001F072EC01F01200B1
:100B7800090E0B6E1E0E0C6EE40E0D6E0D2EFED7BA
:0C0B88000C2EFCD70B2EFAD70000120038
:100B9400C1C0C8F0C2C0C9F0C3C0CAF04CDD120065
:100BA400B7C0E1FFB8C0E2FFC1C0E6FFB5C000F0C6
:0A0BB400B6C001F072EC01F012006F
:100BBE00C2C000F00032009E0032009E0032009E45
:100BCE000032009E420E0024F66E0F0EF76E000EDF
:100BDE00F722000EF86E000EF8220900F5CF00F095
:100BEE00C3C0E1FFC4C0E2FF00C0E6FF010E00017A
:100BFE00C325E16E000EC421E26E0F0EC215006E0B
:100C0E00420E0024F66E0F0EF76E000EF722000E47
:100C1E00F86E000EF8220900F5CF00F000C0E6FFD6
:100C2E00020EC325E16E000EC421E26EC1C000F0BB
:100C3E000032009E0032009E0032009E0032009E66
:100C4E00420E0024F66E0F0EF76E000EF722000E07
:100C5E00F86E000EF8220900F5CF00F000C0E6FF96
:100C6E00030EC325E16E000EC421E26E0F0EC115F8
:100C7E00006E420E0024F66E0F0EF76E000EF72277
:100C8E00000EF86E000EF8220900F5CF00F000C03D
:100C9E00E6FF040EC325E16E000EC421E26EE66A85
:020CAE00120032
:100CB000C1C0C4F0C2C0C5F00D0E0001C66F0A0E5F
:100CC000C76F36D0C4C0C8F0C5C0C9F02ADC3BD05D
:100CD000C4C0E9FFC5C0EAFFEE5209E0C4C0C8F0D5
:100CE000C5C0C9F01EDC0001C44BC52BF1D72BD009
:100CF000C4C0E9FFC5C0EAFFEE5209E0C4C0C8F0B5
:100D0000C5C0C9F00EDC0001C44BC52BF1D70001F2
:100D1000C60EC86F000EC96F04DCC70E0001C86F95
:100D2000000EC96F91EC02F00ED0060E006E0CD0D2
:100D30000001C351000AC6E0C351010AC9E0C35112
:0A0D4000020AD6E0F2D7006A1200A2
:100D4A00C26A151C006E0050C1160F0EC012C08E6A
:100D5A00C1C000F000360090003600900050C21268
:100D6A00C2807EEC01F0C282C2A201D0FDD7C4CFFC
:100D7A0001F0006A00C0C2F001C0C3F0C350001203
:100D8A00000E011200C0C2F001C0C3F0C290000EF2
:100D9A000014026E0150800B036E000E031802E16C
:100DAA00000E021803E00001C26BC36BC2C000F060
:060DBA00C3C001F01200AD
:100DC0000900F5CFE6FF0006FBE10106F9E112009C
:100DD0000001C16B060EC26FC36B63DE0001C16B05
:100DE000020EC26FC36B5DDE100E0001C16F800E7C
:100DF000C26F250EC36F000EC46FC56F74DE290E5F
:100E00000001C16F000EC26F020EC36F51DF090EE9
:100E10000B6E1E0E0C6EE40E0D6E0D2EFED70C2EFC
:0A0E2000FCD70B2EFAD700001200D9
:100E2A00BA0E0001C16F0E0EC26F000EC36FADDEA7
:100E3A00010EC16FB2DE000E0001C16F8BDE97DEBC
:020E4A00120094
:100E4C000001C16B7CDF00C0ADF001C0AEF0000E44
:100E5C000001AF6FB06FADC0C1F0AEC0C2F0490EB3
:100E6C00C36F000EC46FA5DE160EC16F000EC26FED
:100E7C00010EC36F17DF490E0001C16F000EC26F68
:100E8C00020EC36F0FDF290E0B6E960E0C6E7F0ECB
:100E9C000D6E0D2EFED70C2EFCD70B2EFAD7120092
:0E0EAC00A9EC07F08FDFBBDFCBDFFED7FFD74F
:100F520010EE15F0280E006E010E016E1A0EF66EDE
:0E0F62000F0EF76E000EF86EE0EC06F01200B7
:100EBA00DE01CC00FA01CC00EC01CC001602CC0019
:100ECA00B401CC001A01CC000C01CC00AA00CC0061
:100EDA002801CC00FE00CC00F000CC003800CC0089
:100EEA00FFFFFFFFFFFFFFFFFFFFFFFFFFFFFFFF08
:100EFA00FFFFFFFFFFFFFFFFFFFFFFFFFFFFFFFFF8
:100F0A00FFFFFFFFFFFFFFFFFFFFFFFFFFFFFFFFE7
:010F1A00389E
:100F1B0020536C696465722076616C7565203A208C
:030F2B003078001B
:100F2E002D2D2D2053797374656D20496E697420B3
:040F3E002D2D2D0028
:100F420030313233343536373839414243444546FD
:020000040030CA
:0E00000015137F7CF98B91FFFFC0FFE0FF40DE
:00000001FF
